:100000000C94A9050C9405060C9405060C940506A1
:100010000C9405060C9405060C9405060C94050634
:100020000C9405060C9405060C943A210C940506D4
:100030000C9405060C9405060C9405060C94050614
:100040000C94D3290C9405060C9405060C94050613
:100050000C94BC290C94B0220C9405060C94050653
:100060000C9405060C9405060C9405060C940506E4
:100070000C9405060C9405060C9405060C940506D4
:100080000C9455430C9405060C9405060C94050637
:100090000C9405060C94050653797374656D206FF6
:1000A0006E6C696E652E0A0D000A0D002C206368C7
:1000B00065636B207261746520257520487A002580
:1000C000732025732C206368616E6E656C20257526
:1000D000004D414320616464726573732025783A52
:1000E00025783A25783A25783A25783A25783A25B8
:1000F000783A25780A0D000A0A0A2A2A2A2A2A2A80
:100100002A2A424F4F54494E4720434F4E54494BA1
:10011000492A2A2A2A2A2A2A2A2A0A0D003332326E
:10012000313130303132333435373932373036319E
:100130003631353232323232323232323225632087
:100140006973206E6F7420612076616C6964206F22
:100150007074696F6E21206820666F72206D656E05
:10016000750A0D00526573657474696E672E2E2EC4
:100170000A0D00456E746572696E6720444655200D
:100180004D6F64652E2E2E0A0D00446F6E652E0A8B
:10019000000A003A0023002025643A20253032640A
:1001A000644220000A002E00456E65726779205374
:1001B00063616E3A0A0020202A204E657665722D12
:1001C0007573656420737461636B203E2025642021
:1001D00062797465730A0D006163746976650A0D4E
:1001E000006E6F74200020202A20436F6E666967BE
:1001F00075726174696F6E3A2025642C20555342E4
:100200003C2D3E455448206973200020202A20437D
:10021000757272656E742F4C6173742F536D616CBF
:100220006C65737420525353493A2025642F25641A
:100230002F2D2D64426D0A0D0020202A2043757257
:1002400072656E742F4C6173742F536D616C6C65A5
:10025000737420525353493A2025642F25642F2567
:100260006464426D0A0D0020202A204F706572617F
:10027000746573206F6E206368616E6E656C2025F7
:1002800064207769746820545820706F77657220F5
:100290002563256325632E256364426D0A0D0020C6
:1002A000202A203830322E31352E34204555492D24
:1002B00036343A20253032783A253032783A2530B3
:1002C00032783A253032783A253032783A25303251
:1002D000783A253032783A253032780A0020202AC0
:1002E000205553422045746865726E6574204D41F7
:1002F000433A20253032783A253032783A25303268
:10030000783A253032783A253032783A25303278CA
:100310000A004F757470757420726177203830321E
:100320002E31352E34206672616D65730A0D006EB4
:100330006F7420006465636F6D707265737320362F
:100340006C6F7770616E20686561646572730A0D09
:1003500020202A2057696C6C20006E6F7420006387
:1003600068616E6765206C696E6B2D6C6F63616C84
:100370002061646472657373657320696E73696468
:1003800065204950206D657373616765730A0D20A0
:10039000202A2057696C6C20006E6F7420007365F2
:1003A0006E642064617461206F7665722052460A23
:1003B0000D20202A2057696C6C20006E6F7420007D
:1003C00043757272656E746C79204A61636B646107
:1003D000773A0A0D20202A2057696C6C200053655B
:1003E0006C656374203830322E31352E34204368EA
:1003F000616E6E656C20696E2072616E676520317A
:10040000312D3236205B25645D3A20004A61636BF2
:10041000646177206E6F77206361707475726573A5
:1004200020726177206672616D65730A0D004A6102
:10043000636B64617720646F6573206E6F742063F3
:1004400061707475726520726177206672616D6586
:10045000730A0D004A61636B646177206E6F7720C9
:10046000706572666F726D7320366C6F7770616E37
:10047000207472616E736C6174696F6E730A0D0023
:100480004A61636B64617720646F6573206E6F747B
:1004900020706572666F726D20366C6F7770616E5A
:1004A000207472616E736C6174696F6E0A0D004A1C
:1004B00061636B646177206E6F7720696E206E6573
:1004C00074776F726B206D6F64650A0D004A61630B
:1004D0006B646177206E6F7720696E20736E69663A
:1004E000666572206D6F64650A0D000A0D00524E3C
:1004F00047204F75747075743A20004272696E67B8
:10050000696E6720696E74657266616365207570D7
:100510000A0D004272696E67696E6720696E7465C4
:10052000726661636520646F776E0A0D00082008AB
:10053000000A0D4368616E6E656C20756E636861BC
:100540006E6765642E0A0D000A0D4368616E6E6564
:100550006C206368616E67656420746F2025642079
:10056000616E642073746F72656420696E20454506
:1005700050524F4D2E0A0D000A0D496E76616C697E
:100580006420696E7075740A0D005B4275696C7445
:10059000204D617220323520323031315D0A0D003C
:1005A0002A2A2A2A2A2A2A2A2A2A2A2A2A2A2A2AAB
:1005B0002A2A2A2A2A2A2A2A2A2A2A2A2A2A2A2A9B
:1005C0002A2A2A0A0D002A207072657373696E67E1
:1005D00020796F75722063686F696365206F6E2084
:1005E0006B6579626F6172642A0A0D002A204D6181
:1005F0006B652073656C656374696F6E2061742030
:10060000616E792074696D652062792020202A0A44
:100610000D002A2020202020202020202020202003
:1006200020202020202020202020202020202020CA
:10063000202020202A0A0D002A2020682C3F20207C
:10064000202020205072696E742074686973206DB8
:10065000656E75202020202020202A0A0D002A20E7
:1006600020522020202020202020526573657420F5
:1006700028766961205744542920202020202020FA
:100680002A0A0D002A20204420202020202020207B
:1006900053776974636820746F20444655206D6FEA
:1006A0006465202020202A0A0D002A2020652020B1
:1006B000202020202020456E6572677920536361D9
:1006C0006E20202020202020202020202A0A0D001B
:1006D0002A2020722020202020202020546F6767AD
:1006E0006C6520726177206D6F646520202020206A
:1006F00020202A0A0D002A20203620202020202019
:100700002020546F67676C6520366C6F7770616E60
:1007100020202020202020202A0A0D002A202063CB
:100720002020202020202020536574205246206362
:1007300068616E6E656C20202020202020202A0A0F
:100740000D002A20206E202020202020202053650C
:100750007420746F206E6574776F726B206D6F6498
:10076000652020202A0A0D002A2020732020202026
:100770002020202053657420746F20736E69666694
:100780006572206D6F64652020202A0A0D002A20E2
:10079000206D20202020202020205072696E74209F
:1007A00063757272656E74206D6F64652020202001
:1007B0002A0A0D002A20202020202020202020206E
:1007C0002020202020202020202020202020202029
:1007D0002020202020202A0A0D000A0D2A2A2A2A59
:1007E0002A2A2A2A2A2A2A204A61636B64617720EE
:1007F0004D656E75202A2A2A2A2A2A2A2A2A2A0A96
:100800000D000101010002010100030101000401CA
:10081000010006010100070101000A0101000B01AE
:1008200001000C0101000D0101000E010100110188
:100830000100140101001601010002020100010182
:10084000020002010200030102000401020005018E
:1008500002001B020100010101010201010103016B
:10086000010104010101050101010101020102016F
:10087000020103010201000101FD020101FD01016C
:1008800001FD060101FD030101FD040101FD72618D
:10089000776D6F64650041746D656C000000000049
:1008A0000A004D554C544943415354200042524F85
:1008B0004144434153542000444952454354454424
:1008C0002000414C4C5F4D554C54494341535420FA
:1008D0000050524F4D495343554F555320006364C8
:1008E000635F65636D3A2052656365697665642070
:1008F0005345545F45544845524E45545F5041431B
:100900004B45545F46494C5445523A20283078258F
:100910003034582920008112010002EF020140EB1F
:1009200003212000100102030109028D000481054A
:100930008032080B00020202FF0B090400000102D2
:1009400002FF0B052400100105240100000424020D
:1009500000052406000107058303080001090401BE
:1009600000020A000000070581024000010705029D
:1009700002400001080B02020202011009040200F9
:1009800001020201100524001001052401030304E3
:100990002402020524060203070584032000FF0940
:1009A000040300020A000000070585022000010779
:1009B00005060220000109024300020106803209F7
:1009C000040000010202FF0B0524001001052401B0
:1009D0000000042402000524060001070583030823
:1009E000000109040100020A00000007058102401D
:1009F000000107050202400001090220000103076F
:100A000080320904000002020C070C07058303086A
:100A100000010705810240000109024000020208AE
:100A2000803209040000000206000D0524001001B8
:100A300005240600010D240F04000000001205002B
:100A4000000009040100020A0000000705810240BD
:100A500000010705020240000109028A0004820920
:100A60008032080B00020206000D0904000000029B
:100A700006000D052400100105240600010D240FB9
:100A80000400000000120500000009040100020A31
:100A90000000000705810240000107050202400036
:100AA00001080B0202020201100904020001020205
:100AB000011005240010010524010303042402028F
:100AC0000524060203070584032000FF0904030030
:100AD000020A000000070585022000010705060242
:100AE00020000104030904446562756720506F7299
:100AF00074004344432D45434D2B44454255470024
:100B00004344432D45434D004344432D45454D004B
:100B1000524E44495300524E4449532B446562752A
:100B200067004A61636B64617720364C6F575041B0
:100B30004E2041646170746F720041746D656C0089
:100B40003031323334353637383961626364656643
:100B5000000011241FBECFEFD0E2DEBFCDBF04B630
:100B600003FE2EC014BE8091DD199091DE19A09174
:100B7000DF19B091E0198A5C9C4AA244BC4DA1F4F3
:100B80001092DD191092DE191092DF191092E019FF
:100B900088E10FB6F89480936000109260000FBE59
:100BA000E0E0F0EF099518C08091DD199091DE1911
:100BB000A091DF19B091E0190196A11DB11D04C0EB
:100BC00086EC9CEAA2E4BCED8093DD199093DE19DB
:100BD000A093DF19B093E01912E0A0E0B1E0E4EED9
:100BE000F7E900E00BBF02C007900D92A634B107F1
:100BF000D9F719E1A6E4B2E001C01D92AD3DB107FD
:100C0000E1F70E940F060C94F04B0C9400009C013D
:100C1000F999FECF32BD21BDF89A80B50895EF92C3
:100C2000FF920F931F93CF93DF9311240E9403230E
:100C30000E940F23EDEDF9E182E492E49183808339
:100C4000EC59FF4F20E2EB39F207C0F30E948D3BD5
:100C50000E9452228AB1806A8AB98DB1806C8DB9A6
:100C60000E942B310E94772C86EE91E060E070E0CC
:100C70000E94632D0E94E430E0918F01F091900179
:100C80000995E5E4F1E188E0DF011D928A95E9F735
:100C9000CF0160E070E048E050E027E036E00E94DD
:100CA0008248909145119F3FB9F482E080934511AD
:100CB00082E18093461183E180934711909348111C
:100CC0008EEF8093491184E180934A1185E18093EE
:100CD0004B1186E180934C110E94B83BAAE9B3E125
:100CE000E5E4F1E188E001900D928150E1F78DECAF
:100CF0009BEA60E070E045E451E10E94002885E451
:100D000091E10E94802A0E945E08E091CE01F0915C
:100D1000CF010995E091B501F091B6010995E091F7
:100D20002402F09125020995F999FECF89E090E01F
:100D300092BD81BDF89A40B5F999FECF8AE090E066
:100D400092BD81BDF89A80B5242F30E090E0809567
:100D500090952817390709F04AE1842F0E9432251F
:100D60008EE691E060E070E00E94632D8BE291E0FE
:100D700060E070E00E94632D83E591E060E070E048
:100D80000E94632D00D087EF90E0EDB7FEB792830D
:100D900081830E94D248C0E0D0E00F900F900E9463
:100DA000872C2196FFE1C034DF07C9F72DB73EB786
:100DB000225130400FB6F8943EBF0FBE2DBFEDB7A5
:100DC000FEB7319681ED90E0ADB7BEB712969C9319
:100DD0008E931197809145118283138280914611E1
:100DE00084831582809147118683178280914811F0
:100DF00080871186809149118287138680914A11DC
:100E00008487158680914B118687178680914C11B7
:100E1000808B118A0E94D248C0E0D0E0EDB7FEB7C7
:100E200072960FB6F894FEBF0FBEEDBF0E94872CDE
:100E30002196FFE1C034DF07C9F70091B30110919B
:100E4000B401E090CC01F090CD010E94EB232DB7CE
:100E50003EB7285030400FB6F8943EBF0FBE2DBFAE
:100E6000EDB7FEB731962FEB30E0ADB7BEB71296B7
:100E70003C932E93119713830283F582E482868339
:100E800017820E94D248E091D801F091D9012DB784
:100E90003EB7285F3F4F0FB6F8943EBF0FBE2DBF41
:100EA0003097F1F00995BC018DE790E00E94494B25
:100EB0008FEF6F3F7807A1F000D000D08CEA90E070
:100EC000ADB7BEB712969C938E93119714967C93F0
:100ED0006E9313970E94D2480F900F900F900F902F
:100EE00000D089EA90E0EDB7FEB7928381830E943B
:100EF000D248C0E0D0E00F900F900E94872C21963E
:100F0000FFE1C034DF07C9F700D088E990E0ADB752
:100F1000BEB712969C938E9311970E94D2480F9061
:100F20000F900E94872C0E941B23FBCFFC01808125
:100F30009181089570E023E0660F771F2A95E1F70D
:100F40006E507040680F791FCB010895E62FF0E0D6
:100F5000EF5BFF4FEE0FFF1FE80FF91F80819181BC
:100F600008950895CF93DF93EC0186E091E0BE01F0
:100F70000E94022E892B21F0BE016E5F7F4F0CC0B4
:100F80008EE091E0BE010E94022E892B19F460E0F0
:100F900070E002C06A817B81CB01DF91CF9108951F
:100FA000CF93DF93EC0186E091E0BE010E94022E18
:100FB000892B79F068817981CE0102960E94360AE8
:100FC000CE018E579F4FCE54DF4FBE010E94710954
:100FD0001DC08EE091E0BE010E94022E892BB1F06F
:100FE0000E944509688179818A819B810E94360A25
:100FF0008CA990E00E946B080E94C1084CA99E0138
:101000002C5F3F4FB90150E00E946048DF91CF91C3
:101010000895CF93DF93EC0186E091E0BE010E943A
:10102000022E892B19F086E091E009C08EE091E054
:10103000BE010E94022E892B29F08EE091E0BE01B4
:101040000E94D42DDF91CF9108950F931F93CF93DA
:10105000DF930E94CB08892BB1F08EE091E00E94D3
:10106000A62DEC01009769F00E94E208998388831D
:101070000E94DD089B838A83CE0104960E94E109C9
:101080008CAB8E0115C086E091E00E94A62DEC018C
:101090008C01009769F002960E94930999838883D6
:1010A000BE016E547F4FCE018E579F4F0E94820922
:1010B000C801DF91CF911F910F91089586E091E0D3
:1010C0000E94252E8EE091E00E94252E089580E357
:1010D00080934E090895AC0130914E09832F90E022
:1010E000841795079CF020E3231B80914A09909177
:1010F0004B09820F911D840F951F8138910530F4A3
:10110000341B30934E0921E030E002C020E030E093
:10111000C901089590914E09980F90934E09089532
:1011200040914A0950914B099C014817590718F4FE
:1011300020E030E012C080914C0990914D09820F5F
:10114000931F90934D0980934C09421B530B50936E
:101150004B0940934A0921E030E0C901089590937A
:101160004B0980934A09089580914C0990914D094B
:10117000C0962091160130911701280F391FC9011F
:10118000089580914E092091160130911701280F82
:10119000311DC901089540E050E080911601909101
:1011A0001701C09620914F0930915009281739072F
:1011B00011F041E050E0CA01089580914F099091EB
:1011C0005009089580914A0990914B090895909192
:1011D0004E0980E3891B089580E390914E09891B95
:1011E00020914A0930914B09280F311DC9010895FA
:1011F000E82FF0E0EE0FFF1FE359FE4E718360838E
:1012000081E090E00895E82FF0E0EE0FFF1FE35932
:10121000FE4E808191810895282F30E043E0220F17
:10122000331F4A95E1F723573F4EC901089590E0D7
:1012300053E0880F991F5A95E1F783579F4E0E94FC
:10124000562A81E090E00895EDE6F1E111921192C5
:1012500081E1ED39F807D1F78DE491E163EA71E0BE
:101260000E94562A85E591E163EA71E00E94562AC0
:101270008DE591E163EA71E00E94562A85E691E1ED
:1012800063EA71E00E94562A089510924D09109267
:101290004C0910924B0910924A0980E380934E0941
:1012A0008091160190911701C096909350098093F8
:1012B0004F090E9424090895EF92FF920F931F9304
:1012C0008C017B010E9445091093500900934F093E
:1012D000F0924B09E0924A091F910F91FF90EF9015
:1012E0000895ADE6B1E1FC0180E301900D928150DB
:1012F000E1F7ADE4B1E1FB0180E201900D92815094
:10130000E1F70895DC01EDE6F1E180E301900D9253
:101310008150E1F7DB01EDE4F1E180E201900D9213
:101320008150E1F708950F931F93CF93DF93EC0162
:1013300080914E09482F50E080914A0990914B09C5
:10134000C096841B950B8138910518F020E030E0A1
:1013500032C000E310E0F801E41BF50B2091160108
:1013600030911701240F351FCE01B901AF010E9442
:10137000604880914E09081B11090C0F1D1F209118
:101380004F093091500980914C0990914D09280FD7
:10139000391F40914A0950914B09C801B9010E9477
:1013A000604820914A0930914B09205D3F4F809160
:1013B0004E09281B3109C901DF91CF911F910F916F
:1013C00008950F931F9340914E0950E000E310E001
:1013D000F801E41BF50B2091160130911701240F41
:1013E000351FB901AF010E94604880914E09081B6A
:1013F0001109C8011F910F910895E0914F09F091D3
:10140000500960911601709117019B01205D3F4FBB
:10141000E217F30749F040914A0950914B09C9017D
:10142000BF010E946048089580914C0990914D0938
:101430000097D9F040914A0950914B09405D5F4FA8
:10144000DC01D096A60FB71F20E330E007C0FB01F8
:10145000E20FF31F8D9180832F5F3F4F24173507D5
:10146000B4F310924D0910924C090895EF92FF9237
:101470000F931F93F82EE92E162F072F0E94450970
:10148000212F302FC9018C018138910510F000E81F
:1014900010E080914F09909150096F2D7E2DA80189
:1014A0000E94604810934B0900934A09C8011F919C
:1014B0000F91FF90EF900895769885E080939D11AD
:1014C000089500D08AED97E0EDB7FEB7928381834F
:1014D0000E94D24884EB97E0EDB7FEB792838183F8
:1014E0000E94D2488EE897E0EDB7FEB792838183E1
:1014F0000E94D24888E697E0EDB7FEB792838183D9
:101500000E94D24882E497E0EDB7FEB792838183D0
:101510000E94D2488CE197E0EDB7FEB792838183B9
:101520000E94D24886EF96E0EDB7FEB792838183A2
:101530000E94D24880ED96E0EDB7FEB7928381839A
:101540000E94D2488AEA96E0EDB7FEB79283818383
:101550000E94D2480F900F900E943323882359F0A5
:1015600000D084E896E0EDB7FEB7928381830E94B5
:10157000D2480F900F9000D08EE596E0EDB7FEB701
:10158000928381830E94D24888E396E0EDB7FEB74C
:10159000928381830E94D24882E196E0EDB7FEB744
:1015A000928381830E94D2488CEE95E0EDB7FEB71E
:1015B000928381830E94D24886EC95E0EDB7FEB716
:1015C000928381830E94D24880EA95E0EDB7FEB70E
:1015D000928381830E94D2488AE895E0EDB7FEB7F6
:1015E000928381830E94D2480F900F9008952F928A
:1015F0003F924F925F926F927F928F929F92AF92A3
:10160000BF92CF92DF92EF92FF920F931F93DF93DF
:10161000CF93CDB7DEB7E7970FB6F894DEBF0FBE16
:10162000CDBF182F80910B0A90910C0A019709F0F9
:101630009DC01D3079F01E303CF4183009F462C0B2
:101640001A3009F02EC506C0812F80538A3008F069
:1016500028C56AC0E091070AEE2309F441C0F0E012
:10166000E85FF54F108288E09AE00E9415488C01EF
:101670000B97409720F000D088E795E034C0F02E1B
:10168000802F0E943225F999FECF1FBA89E090E0A1
:1016900092BD81BDF0BC0FB6F894FA9AF99A0FBECC
:1016A000F999FECF1FBA8AE090E092BD81BD802FEC
:1016B000809580BD0FB6F894FA9AF99A0FBE00D0C3
:1016C00000D088E495E0EDB7FEB792838183148360
:1016D00003830E94D2480F900F900F900F900DC07F
:1016E00000D081E395E0ADB7BEB712969C938E9380
:1016F00011970E94D2480F900F9010920C0A1092EE
:101700000B0ACFC48091070A882309F4CAC4815008
:101710008093070A00D08DE295E0EDB7FEB7928383
:1017200081830E94D248FBC08091070A823048F032
:101730006091D9197091DA1987E090E00E94A6486B
:10174000B0C46091D9197091DA19812F992787FD5A
:1017500090950E94A6488091070AE82FF0E0E85F84
:10176000F54F10838F5F8093070A9BC4123509F4ED
:101770004BC41335E4F41D32D9F11E3254F41D303C
:1017800009F48FC41B3209F442C01A3009F075C441
:1017900088C41D33E1F11E3324F4163309F06DC4FF
:1017A000AAC01F3311F1143409F067C406C41D36F2
:1017B00009F401C11E364CF4153609F4DAC21836A4
:1017C000A1F0133609F059C4DAC0123709F4B7C0D2
:1017D000133724F41E3609F050C478C0133709F4C7
:1017E0005EC0143709F049C421C00E94610A59C47F
:1017F00000D083E195E0ADB7BEB712969C938E936F
:1018000011970E94D2480F900F9080E00CC000D03A
:101810008BEF94E0EDB7FEB7928381830E94D248AC
:101820000F900F9081E00E9430113BC400D08EEEEB
:1018300094E0ADB7BEB712969C938E9311970E9419
:10184000D2480F900F900E942C4007E010E0E82E45
:10185000FF24C701002E02C0959587950A94E2F7F0
:1018600080FD03C080E390E002C081E390E00E942D
:10187000D04001501040BFEF0F3F1B0751F700D081
:101880008BEE94E0EDB7FEB7928381830E94D2483D
:101890000F900F900E94B8400E941B2302C400D0FA
:1018A0008DEC94E0ADB7BEB712969C938E931197D2
:1018B0000E94D2488091CD19897F8093CD190F90D5
:1018C0000F900E94EB230E944025EBC300D08FEACB
:1018D00094E0EDB7FEB7928381830E94D248809155
:1018E000CD1986608093CD190F900F900E94EB2345
:1018F0000E943225D6C38091CD1980FF13C000D03D
:1019000080E894E0ADB7BEB712969C938E93119782
:101910000E94D2488091CD198E7F8093CD190F906F
:101920000F90BFC300D084E594E0EDB7FEB792837B
:1019300081830E94D2488091CD198160EECF809141
:10194000CD1983FF0FC000D08EE294E0ADB7BEB7D3
:1019500012969C938E9311970E94D2488091CD1934
:10196000877FDBCF00D08CE094E0EDB7FEB79283A9
:1019700081830E94D2488091CD198860CECF0E9489
:10198000EB2300D000D0EDB7FEB731962EED33E05B
:10199000ADB7BEB712963C932E93119782831382F4
:1019A0000E94D24881E090E090930C0A80930B0A49
:1019B0001092070A72C300D080EC93E0EDB7FEB737
:1019C000928381830E94D2488091CD190F900F900D
:1019D00081FD0DC000D08BEB93E0ADB7BEB7129682
:1019E0009C938E9311970E94D2480F900F9000D035
:1019F0008EE993E0EDB7FEB7928381830E94D248CF
:101A00008091CD190F900F9082FD0DC000D089E913
:101A100093E0ADB7BEB712969C938E9311970E9438
:101A2000D2480F900F9000D08FE593E0EDB7FEB74E
:101A3000928381830E94D2488091CD190F900F909C
:101A400080FD0DC000D08AE593E0ADB7BEB7129619
:101A50009C938E9311970E94D2480F900F9000D0C4
:101A600084E393E0EDB7FEB7928381830E94D2486E
:101A70008091CD190F900F9083FD0DC000D08FE2A3
:101A800093E0ADB7BEB712969C938E9311970E94C8
:101A9000D2480F900F9000D082E193E0EDB7FEB7EF
:101AA000928381830E94D2482DB73EB72C5030409C
:101AB0000FB6F8943EBF0FBE2DBFEDB7FEB73196FF
:101AC0008DED92E0ADB7BEB712969C938E931197B1
:101AD000809135018283138280913601848315823F
:101AE0008091370186831782809138018087118623
:101AF000809139018287138680913A018487158607
:101B00000E94D24800D000D0EDB7FEB731968FE9E1
:101B100092E0ADB7BEB712969C938E9311978091C9
:101B200045118283138280914611848315828091AE
:101B30004711868317828091481180871186809192
:101B400049118287138680914A1184871586809176
:101B50004B118687178680914C11808B118A0E94C9
:101B6000D248EDB7FEB772960FB6F894FEBF0FBE1F
:101B7000EDBF0E9440248F70863018F400E31BE212
:101B800006C08F3011F401E301C000E31DE2282FED
:101B900030E0C901835E9E4FFC01E490235D3E4F1F
:101BA000F901F4900E94EB232DB73EB72C50304042
:101BB0000FB6F8943EBF0FBE2DBFEDB7FEB73196FE
:101BC00027E632E0ADB7BEB712963C932E9311973D
:101BD00082831382812F992787FD90959583848333
:101BE000802F992787FD9095978386838E2D99273F
:101BF00087FD9095918780878F2D992787FD9095F8
:101C0000938782870E94D248EDB7FEB73C960FB605
:101C1000F894FEBF0FBEEDBF8091B112882389F109
:101C20000E9489252DB73EB7285030400FB6F89452
:101C30003EBF0FBE2DBFEDB7FEB7319629E332E0B0
:101C4000ADB7BEB712963C932E93119790E08C558A
:101C50009040938382838091AE1290E08C559040A7
:101C6000958384838091B11290E08C559040978346
:101C700086830E94D2481092B112EDB7FEB7389613
:101C800021C00E94892500D000D000D0EDB7FEB75A
:101C900031962BE032E0ADB7BEB712963C932E934F
:101CA000119790E08C559040938382838091AE127F
:101CB00090E08C559040958384830E94D248EDB784
:101CC000FEB736960FB6F894FEBF0FBEEDBF00D03C
:101CD00000D0EDB7FEB7319686EE91E0ADB7BEB756
:101CE00012969C938E9311978091A01282831382F7
:101CF0000E94D2480F900F900F900F9080913D015D
:101D0000882359F400D081EE91E0EDB7FEB79283BD
:101D100081830E94D2480F900F9000D088ED91E00F
:101D2000ADB7BEB712969C938E9311970E94D2487E
:101D3000EDEDF9E10F900F908081918182549244F2
:101D400089F000D000D086EB91E0ADB7BEB7129617
:101D50009C938E931197ED5DF9411496FC93EE934D
:101D6000139799C1EC59FF4FB0E2EB39FB0720F311
:101D700098C100D088EA91E0EDB7FEB792838183E5
:101D80000E94D2480F900F900E94B8400E94EB230F
:101D90008CABE2E12E2E312C2C0E3D1E82E2D101C5
:101DA0001D928A95E9F72E010894411C511C81E18E
:101DB000F20111928A95E9F788249924C2014DAA6B
:101DC0009EABC1012FAAA92E45C08B2D0E94402594
:101DD00080E58A95F1F70E948925D7012C91982FEB
:101DE00082170CF4922FF70191937F01282F33274C
:101DF00027FD3095D8018D919C91820F931FF8019A
:101E0000819391938F01B394FBE1BF16F1F687FEA6
:101E100016C07698C4018F779070892B89F400D012
:101E2000E6EAF1E0ADB7BEB71296FC93EE931197D8
:101E30000E94D2480F900F900E94B84001C0769A3D
:101E40000E941B230894811C911CF0E08F16F0E186
:101E50009F0659F08DA99EA96C018FA99A2D3C016E
:101E6000720181017BE0B72EB0CF8CA90E94322590
:101E700000D084EA91E0ADB7BEB712969C938E93E2
:101E800011970E94D2486BE0E62EF12C0F900F9034
:101E900055E9A52E51E0B52E43E9242E41E0342E1C
:101EA00031E9432E31E0532E22E3822E912C8C0E09
:101EB0009D1EF6018081482F552747FD5095D3017F
:101EC0002D913C91220F232F221F330B3195241784
:101ED000350708F4A901142F00D000D000D0EDB7C9
:101EE000FEB7319627E931E0ADB7BEB712963C9305
:101EF0002E931197F382E282992787FD90958C5556
:101F00009040958384830E94D2488DB79EB70696F1
:101F10000FB6F8949EBF0FBE8DBF10C000D0ADB7F6
:101F2000BEB71296BC92AE9211970E94D248F601AB
:101F300080818150808311500F900F90112371F791
:101F40000FC000D0ADB7BEB712963C922E9211973B
:101F50000E94D248F6018081815080830F900F90BB
:101F6000D6018C9118166CF300D0EDB7FEB75282F3
:101F700041820E94D2480F900F900E94B84022E008
:101F800030E0620E731E0894C11CD11C0894E11C41
:101F9000F11C6814790409F08CCF00D08AE891E034
:101FA000ADB7BEB712969C938E9311970E94D248FC
:101FB0000F900F900E94B84074C000D083E791E06A
:101FC000EDB7FEB7928381830E94D2480F900F90A5
:101FD0000E94B8405F9A5D987798769820E048EC28
:101FE00050E008C0FA013197F1F70197D9F72F5F58
:101FF0002A3019F088EE93E0F5CF5F985D9A779AD2
:10200000769A0E9442234DC000D084E691E0ADB79D
:10201000BEB712969C938E9311970E94D2480F9050
:102020000F900E94B8405F9A5D987798769820E06C
:1020300048EC50E008C0FA013197F1F70197D9F761
:102040002F5F2A3019F088EE93E0F5CF8091E00001
:1020500081608093E00020E048EC50E008C0FA0185
:102060003197F1F70197D9F72F5F243119F088EEF6
:1020700093E0F5CF0E94262314C000D000D08DE35A
:1020800091E0EDB7FEB792838183812F992787FD79
:102090009095948383830E94D2480F900F900F9065
:1020A0000F90E7960FB6F894DEBF0FBECDBFCF916D
:1020B000DF911F910F91FF90EF90DF90CF90BF9035
:1020C000AF909F908F907F906F905F904F903F90D8
:1020D0002F900895CF93DF93EC0188819981009729
:1020E00029F0843C910509F06FC065C080919D1175
:1020F000882321F0815080939D1101C0769A8091B0
:10210000A012882309F442C00E945D4090E08170D3
:1021100090702091030A30E082179307F1F00E943B
:102120005D4081708093030A882379F08091D919EA
:102130009091DA199093060A8093050A0E94514003
:102140000E9456400E94610A08C08091050A909141
:10215000060A9093DA198093D9199091040A943061
:1021600048F08091D519882329F01092040A0E9422
:10217000B84008C09F5F9093040A04C00E94934037
:102180000E94F70A0E946D408823C1F78091A01237
:102190008158823028F48DE09AE061E070E004C05C
:1021A0008DE09AE06DE770E00E94AF2F84EC90E044
:1021B0009983888307C08DE09AE00E94482E892B7E
:1021C00009F094CF81E003C01982188283E0DF9187
:1021D000CF91089582E08093E9008091E8008072B9
:1021E00008958091DF11882339F081508093DF11A9
:1021F00082FF02C05D9801C05D9A80919E11882384
:1022000039F0815080939E1182FF02C07798089523
:10221000779A08958091DF1188608093DF1190E0B4
:10222000019782FD5D98089580919E11886080934A
:102230009E1190E0019782FD5D980895A5E3B1E0BD
:10224000FC0186E001900D928150E1F70895DC01D8
:10225000E5E3F1E086E001900D928150E1F7089509
:102260001F93182F80913D018117C1F08091A0121A
:10227000823079F0833018F4813081F405C08138E0
:1022800019F0823859F405C010933D010E94DB110A
:1022900005C0812F0E94521A10933D0180E01F91CA
:1022A00008951F939C0180913D01882309F180913D
:1022B000A0128823E9F0833081F0843028F4813043
:1022C00041F08230A9F40DC0813819F0823881F4D0
:1022D00008C0C9010E948B1207C0C9010E943819A9
:1022E00003C0C9010E945B1A182F882321F401C082
:1022F00010E00E941B23812F1F9108950E94032448
:102300000895CF93DF93EC0188819981009729F09C
:102310008352914009F047C033C00E94F110809170
:10232000A012833079F0843028F4813041F082307B
:10233000D9F40BC0813819F08238B1F406C00E947C
:10234000381305C00E94AF1904C00E949E1A88234A
:1023500029F085E19AE061E070E00BC04F9A85E1D9
:102360009AE06FE070E005C04F9A85E19AE06FE176
:1023700070E00E94AF2F83E291E09983888317C0B9
:1023800085E19AE00E94482E892B39F682E08093FD
:10239000E9008091E80085FF0AC00E940324882399
:1023A00009F0BBCF04C01982188283E001C081E02C
:1023B000DF91CF91089581E080931D0A0895809167
:1023C000E800877F8093E80090911E0A392FE0E0B3
:1023D0001DC08091E80080FFFCCF2E2F5E2F505C47
:1023E0000DC0432F4150251759F0E22FF0E0E05285
:1023F000FE4E80818093F1002F5F342F332389F7C5
:102400008091E8008E7F8093E800E22F332339F03B
:102410008091E80082FFDDCF30931E0A02C0109247
:102420001E0A8091E80082FD13C0892F90E08F730F
:102430009070892B49F48091E80080FFFCCF809157
:10244000E8008E7F8093E8008091E80082FFFCCF57
:102450008091E8008B7F8093E8008091E8008F777F
:102460008093E80081E008959B01AC018091E80031
:1024700080FF47C080911E0A882309F042C087E090
:1024800090E0A0E0B0E08093E0119093E111A09380
:10249000E211B093E31184E190E0A0E0B0E080931A
:1024A000E4119093E511A093E611B093E711209306
:1024B000E8113093E9114093EA115093EB11E0EEEB
:1024C000F1E181918093F10081E1E43FF807C9F7E0
:1024D0008091E8008E7F8093E8008091E80080FF83
:1024E000FCCF8091E80082FFFCCF8091E8008B7FD9
:1024F0008093E8008091E8008F778093E80081E086
:10250000089580E0089565FF02C081E001C080E089
:102510000E946C2308950F931F93CF93DF938C0138
:10252000EB0181E090E0A0E0B0E080939F119093F8
:10253000A011A093A111B093A21184E290E0A0E0B9
:10254000B0E08093A7119093A811A093A911B09324
:10255000AA11CB01A0E0B0E08093AB119093AC1135
:10256000A093AD11B093AE111092B3111092B411AB
:102570001092B5111092B6111092AF111092B011C5
:102580001092B1111092B2111092B7111092B811AD
:102590001092B9111092BA111092BB111092BC1185
:1025A0001092BD111092BE111092BF111092C01165
:1025B0001092C1111092C2111092C3111092C41145
:1025C0001092C5111092C6111092C7111092C81125
:1025D0001092C9111092CA118C96A11DB11D809341
:1025E000A3119093A411A093A511B093A61181E01B
:1025F0008093E9008091E8008F778093E8000E9443
:10260000F11B882371F5EFE9F1E181918093F100ED
:1026100081E1EB3CF807C9F714C0F8018081809391
:10262000F1008091E80085FD09C08091E8008F7776
:102630008093E8000E94F11B882399F40F5F1F4FDD
:102640002197209751F78091E8008F778093E800D9
:102650000E9414110E94491C90E0882319F491E013
:1026600001C090E0892FDF91CF911F910F910895C4
:10267000FF920F931F93CF93DF9380918C129091D1
:102680008D12029711F080E0D9C080915D018823FE
:1026900021F00E943C3C10925D015F9A82E08093A1
:1026A000E9008091E80082FFC8C080919813909162
:1026B0009913892B09F0C1C09091F2009C3210F05F
:1026C00020E00BC08091E8008B7F8093E800809130
:1026D000E8008F778093E80021E0EFE9F1E1809155
:1026E000F100819381E1EB3CF807C9F784EDF82E06
:1026F000F90E80919F119091A011A091A111B0911C
:10270000A2110197A105B10559F08091E8008B7FD6
:102710008093E8008091E8008F778093E80021E0C3
:102720008091AB119091AC11A091AD11B091AE110F
:102730000097A105B10509F480C0222309F07DC0EE
:102740000E940A112091A7113091A8112452304003
:102750008091E8008F7E8093E80026C08091F10090
:10276000FA9401F58091E8008B7F8093E8008091D6
:10277000E8008F778093E8008091E80082FD04C034
:102780008091E80084FFF8CF8091E80084FF06C0C4
:102790008091E8008F7E8093E80009C0F090F200FD
:1027A000FF2029F02150304021153105B9F6C091A4
:1027B000AB11D091AC1102EA13E11BC08091F10082
:1027C000F80180832197FA9491F4209781F0809109
:1027D000E8008B7F8093E8008091E8008F778093FA
:1027E000E8000E94751C882341F5F090F2000F5F0D
:1027F0001F4F209719F78091E8008B7F8093E800A6
:102800008091E8008F778093E8008091AB119091E0
:10281000AC11A091AD11B091AE118331F5E09F07DD
:10282000F0E0AF07F0E0BF0740F490939913809376
:10283000981382EA93E10E946F3F81E0DF91CF918C
:102840001F910F91FF900895FF920F931F9309EE30
:1028500010E083E0F801808381EC60E00E94A11C1D
:1028600081E0F801808381E864E30E94A11C92E08A
:10287000F92EF801F08280E864E30E94A11CEAEEE0
:10288000F0E088E080831082F082108284E0808310
:1028900010821F910F91FF900895CF93DF93EB016A
:1028A0006EE878E047E050E00E944548892B51F4FB
:1028B00088819091CD19803311F4977F01C0986081
:1028C0009093CD19DF91CF910895EF92FF920F93DE
:1028D0001F93DF93CF93CDB7DEB769970FB6F89408
:1028E000DEBF0FBECDBF2091F4113091F511A901CB
:1028F00048515E4EFA0184819581A681B781833368
:102900009105A105B10510F062E301C0682F70E0E8
:102910008E010F5F1F4F15C0E72FF0E07801EE0E1C
:10292000FF1EEE0FFF1FDA018D919C91E80FF91F3A
:10293000E20FF31FE851FE4E8081F7018083625061
:102940007F5F16164CF38091EC119091ED11A091E0
:10295000EE11B091EF118231F1E09F07F1E0AF0786
:10296000F0E0BF0709F47FC0833161E0960761E0C2
:10297000A60760E0B60778F48E30E1E09E07E1E05C
:10298000AE07E0E0BE0741F18F509140A140B0405A
:1029900009F042C068C08B3162E0960761E0A6078B
:1029A00060E0B60731F083509140A140B140A1F5FD
:1029B0005AC0DA011C968D919C911D97280F391FE2
:1029C00028513E4E50964D915C915197CE01019603
:1029D000B9010E944D1447C028513E4EF901608153
:1029E00071818281938160931F0A7093200A809382
:1029F000210A9093220A611571058105910529F03C
:102A00000E94831282E090E002C081E090E0909307
:102A10008D1280938C1227C085E090E0A0E0B0E892
:102A20008093E0119093E111A093E211B093E31130
:102A300020E130E040E050E02093E4113093E511D4
:102A40004093E6115093E71181E090E0A0E0B0ECF4
:102A50008093EC119093ED11A093EE11B093EF11D0
:102A600020931E0A22C085E090E0A0E0B0E88093A9
:102A7000E0119093E111A093E211B093E31180E192
:102A800090E0A0E0B0E08093E4119093E511A09372
:102A9000E611B093E7111092EC111092ED11109223
:102AA000EE111092EF1180931E0A69960FB6F894FA
:102AB000DEBF0FBECDBFCF91DF911F910F91FF9071
:102AC000EF900895E0EEF1E184E090E0A0E0B0E85E
:102AD0008093E0119093E111A093E211B093E31180
:102AE00084E090E0A0E0B0E08093F0119093F111C9
:102AF000A093F211B093F31180E190E0A0E0B0E078
:102B00008093F4119093F511A093F611B093F711FF
:102B10008091EC119091ED11A091EE11B091EF1117
:102B2000823022E0920721E0A20720E0B20709F4F8
:102B30001EC1833022E0920721E0A20720E0B20705
:102B400008F07DC08C3021E0920721E0A20720E050
:102B5000B20708F03AC08A3021E0920721E0A207CC
:102B600020E0B20708F01AC1853021E0920721E089
:102B7000A20720E0B207C8F4833021E0920721E0E9
:102B8000A20720E0B20708F0F2C0813021E09207EE
:102B900021E0A20720E0B20709F4D6C0825091409C
:102BA000A140B04009F0B8C1E2C0863021E09207F0
:102BB00021E0A20720E0B20709F4E6C08750914067
:102BC000A140B04009F0A8C1E4C08F3021E09207D5
:102BD00021E0A20720E0B20709F420C1803121E002
:102BE000920721E0A20720E0B20780F48D3021E0B7
:102BF000920721E0A20720E0B20709F4D9C08E5065
:102C00009140A140B04008F0E8C0CDC0843121E03F
:102C1000920721E0A20720E0B20709F4ECC0863158
:102C200021E0920721E0A20720E0B20709F4F1C0F9
:102C300081519140A140B04009F06EC1D7C08330AE
:102C400021E0920721E0A20721E0B20709F412C1B6
:102C5000843021E0920721E0A20721E0B20708F0CA
:102C60003AC0843021E0920722E0A20720E0B207B8
:102C700009F41CC1853021E0920722E0A20720E080
:102C8000B207C8F4823021E0920722E0A20720E0D8
:102C9000B20709F402C1833021E0920722E0A207C3
:102CA00020E0B20708F00BC181509140A240B04033
:102CB00009F032C1E9C0853021E0920722E0A20785
:102CC00020E0B20709F453C081509140A140B140C7
:102CD00008F422C1AFC0843021E0920722E0A207AD
:102CE00021E0B207C8F4813021E0920722E0A20778
:102CF00021E0B20708F03BC0843021E0920721E0D8
:102D0000A20721E0B20709F4BAC085509140A14062
:102D1000B14009F001C12BC0823021E0920721E0CF
:102D2000A2072DEFB20709F4EEC0863021E092072A
:102D300021E0A2072DEFB207D1F080509140A140D1
:102D4000BD4F09F0E9C0CCC08CE890E0A0E0B0E055
:102D50008093F0119093F111A093F211B093F311BD
:102D6000CF01489662E078E04CE850E033C0109222
:102D7000F8111092F9111092FA111092FB1180E0E3
:102D800090E0A0E0B0E0D4C084E095E0A0E0B0E046
:102D90009EC084EC99E0A0E0B0E099C086E690E0A7
:102DA000A0E0B0E094C08FEF9FEFAFEFB0E08FC036
:102DB00088E090E0A0E0B0E08093F0119093F111F2
:102DC000A093F211B093F311CF01489666E978E031
:102DD00048E050E00E943348D2CF80911F0A909182
:102DE000200AA091210AB091220A71C082E195E0E7
:102DF000A0E0B0E06CC01092F8111092F91110929E
:102E0000FA111092FB1180913D01882309F0B7CF90
:102E100036C080E090E1A0E0B0E059C084E095E0E9
:102E2000A0E0B0E08093F8119093F911A093FA110B
:102E3000B093FB111092FC111092FD111092FE1133
:102E40001092FF1188EF91E10E9427118091F011FB
:102E50009091F111A091F211B091F3110296A11D80
:102E6000B11D8093F0119093F111A093F211B093E2
:102E7000F31185CF80E090E0A0E0BEE028C081E0C3
:102E800090E0A0E0B0E023C080918E1290918F126C
:102E9000A0919012B09191121AC0809192129091CB
:102EA0009312A0919412B091951211C080919A1230
:102EB00090919B12A0919C12B0919D1208C080919C
:102EC000961290919712A0919812B09199128093B6
:102ED000F8119093F911A093FA11B093FB114FCF11
:102EE00086E090E0A0E0B0E08093F0119093F111C3
:102EF000A093F211B093F311789686E0DF011D9252
:102F00008A95E9F73CCF1092F0111092F1111092CE
:102F1000F2111092F31133CF1092F0111092F111BF
:102F20001092F2111092F31181E090E0A0E0B0EC69
:102F30008093EC119093ED11A093EE11B093EF11EB
:102F40008091F0119091F111A091F211B091F311D3
:102F50004896A11DB11D8093E4119093E511A093B3
:102F6000E611B093E7114897A109B10941F4109215
:102F7000F4111092F5111092F6111092F711809140
:102F8000E41180931E0A08952091E800277F209382
:102F9000E8009C018D3A910510F02CEA30E0809118
:102FA000E8008F7B8093E800E0E030C08091E8008B
:102FB0009091E80082FD02C096FFF8CF8091E80072
:102FC00082FF1EC09E2F4E2F405C8091F100E92FA2
:102FD000F0E0E052FE4E80839F5F21503040941716
:102FE00019F02115310589F78091E8008B7F8093D6
:102FF000E8008091E8008F778093E800E92F06C011
:103000008091E8008F7B8093E80003C02115310593
:1030100069F68091E8008E7F8093E8008091E0114E
:103020009091E111A091E211B091E31184309105EA
:10303000A105B10509F4A7C085309105A105B10529
:1030400058F482309105A105B105C1F00397A1059F
:10305000B10509F0F4C08DC086309105A105B10518
:1030600009F497C086309105A105B10508F48EC01A
:103070000897A105B10509F0E2C0BEC082E090E06A
:10308000A0E0B0E88093E0119093E111A093E211E9
:10309000B093E31124E330E040E050E02093E411EA
:1030A0003093E5114093E6115093E71181E090E0F1
:1030B000A0E0B0E08093F0119093F111A093F21191
:1030C000B093F3118093F4119093F511A093F6113E
:1030D000B093F7111092EC111092ED111092EE11C5
:1030E0001092EF118093F8119093F911A093FA11B7
:1030F000B093FB111092FC111092FD111092FE1171
:103100001092FF118093001290930112A09302126B
:10311000B09303128CE495E0A0E0B0E08093041239
:1031200090930512A0930612B093071283E090E0EB
:10313000A0E0B0E08093081290930912A0930A12C5
:10314000B0930B1210920C1210920D1210920E12DC
:1031500010920F121092101210921112109212125D
:103160001092131281E090E090938D1280938C1254
:1031700040C05F9A5D98779876988091E8008E7F3E
:103180008093E800FFCF0E9462155CC00E94651426
:1031900059C010928D1210928C1286E090E0A0E03F
:1031A000B0E88093E0119093E111A093E211B09305
:1031B000E31120E130E040E050E02093E41130934F
:1031C000E5114093E6115093E7111092E811109227
:1031D000E9111092EA111092EB1181E090E0A0E069
:1031E000B0E08093EC119093ED11A093EE11B093A9
:1031F000EF1120931E0A26C088E090E0A0E0B0E81E
:103200008093E0119093E111A093E211B093E31148
:1032100080E190E0A0E0B0E08093E4119093E511AC
:10322000A093E611B093E7111092EC111092ED11FA
:103230001092EE111092EF1180931E0A03C077983E
:1032400080E008958091E80080FFFCCF8091E80045
:1032500082FF0AC08091E8008B7F8093E800809114
:10326000E8008F778093E80081E080931D0A08953D
:10327000EF92FF920F931F93DF93CF9300D000D074
:10328000CDB7DEB77C018B0181E08093E9000E941D
:10329000F11B882309F056C0C80104968093F10001
:1032A000892F8F738093F10016C0F701808180937E
:1032B000F1008091E80085FD09C08091E8008F77DA
:1032C0008093E8000E94F11B8823E1F50894E11C3B
:1032D000F11C015010400115110539F78EED89835D
:1032E0008DEA8A838EEB8B838FEE8C838E010F5F4A
:1032F0001F4F85E0E82EF12CEC0EFD1EF8018081B9
:103300008093F1008091E80085FD09C08091E8007C
:103310008F778093E8000E94F11B882399F40F5F58
:103320001F4F0E151F0551F78091E8008F7780938E
:10333000E8000E9414110E94491C90E0882319F4AF
:1033400091E001C090E0892F0F900F900F900F90A7
:10335000CF91DF911F910F91FF90EF9008951F93F0
:10336000CF93DF9380915E01882321F00E943C3C43
:1033700010925E015F9A82E08093E9008091E800FC
:1033800082FF6BC08091981390919913892B09F05B
:1033900064C09091F200923068F02091F100209387
:1033A0009F118091F1008093A011192F1250882352
:1033B00064F453C08091E8008B7F8093E800809193
:1033C000E8008F778093E800E8CF90E08F739070EB
:1033D000D82FCC27822F90E0C82BD92B2097E9F14A
:1033E0000E940A119E01E2EAF3E18091F1008193CB
:1033F000215030401150B1F421153105B1F08091C8
:10340000E8008B7F8093E8008091E8008F778093BD
:10341000E8008091E80082FFFCCF1091F2001123B8
:1034200021F703C02115310501F78091E8008B7F5A
:103430008093E8008091E8008F778093E800CE01C8
:10344000049725E08331920740F490939913809379
:10345000981382EA93E10E946F3FDF91CF911F9111
:103460000895FF920F931F9309EE10E081E0F80199
:10347000808381E864E30E94A11C42E0F42EF801FD
:10348000F08280E864E30E94A11CEAEEF0E0F082A2
:10349000108284E0808310821F910F91FF90089525
:1034A00008950895982F80913D01981719F0769806
:1034B00090933D0108950F931F93CF93DF938C0159
:1034C000EB0181E08093E9000E94F11B8823D1F099
:1034D0002EC0F80180818093F1008091E80085FD85
:1034E0000EC08091E8008E7F8093E8008091E80014
:1034F0008F778093E8000E94F11B8823C1F40F5F4F
:103500001F4F2197209729F78091E8008E7F8093A5
:10351000E8008091E8008F778093E8000E94141102
:103520000E94491C90E0882319F491E001C090E0CA
:10353000892FDF91CF911F910F910895EF92FF9204
:103540000F931F93CF93DF9382E08093E9008091E4
:10355000EB0080FF90C080915F01882371F00E9492
:103560003C3C10925F018091230A80FF03C081E000
:103570000E946C2382E08093E90080913D018823C2
:1035800079F48091E80085FF76C08091E8008B7F18
:103590008093E8008091E8008F778093E8006BC00B
:1035A0005F9A8091E80085FF68C00E947E118823A1
:1035B00009F463C00E940A11C0E0D0E082EAE82E5C
:1035C00083E1F82E21C08091F100F70181937F0102
:1035D0002196F5E0C231DF0730F4015010408FEF43
:1035E0000F3F180781F78091E8008B7F8093E800F8
:1035F0008091E8008F778093E8000E94F11B882378
:10360000E1F5C00FD11F21968091F200803419F4AA
:1036100000E410E0DECF8091F200282F30E006C0F9
:103620008091F100F70181937F012196F5E0C2318D
:10363000DF0730F4215030408FEF2F3F380781F7FC
:103640002C0F3D1F2F5F3F4F8091E8008B7F8093B1
:10365000E8008091E8008F778093E800E5E023316F
:103660003E0758F4309399132093981382EA93E11C
:103670000E946F3F02C080E001C081E0DF91CF91E6
:103680001F910F91FF90EF900895EF92FF920F938B
:103690001F9309EE10E0EE24E394F801E08281E844
:1036A00064E30E94A11C92E0F92EF801F08280E808
:1036B00064E30E94A11CEAEEF0E0F082108284E054
:1036C00080831082E0923D011F910F91FF90EF9057
:1036D00008953091F1002091F100922F80E0830F46
:1036E000911D9093240A8093230A8091E800877F9C
:1036F0008093E8008091E8008E7F8093E8000E942C
:103700001D1C00D000D08EED98E0EDB7FEB792837F
:1037100081838091230A9091240A948383830E9459
:10372000D2488091230A0F900F900F900F9080FF46
:103730000DC000D081ED98E0EDB7FEB79283818394
:103740000E94D2480F900F9081E001C080E00E945B
:103750006C238091230A81FF0BC000D082EC98E09B
:10376000EDB7FEB7928381830E94D2480F900F90ED
:103770008091230A82FF0BC000D088EB98E0EDB760
:10378000FEB7928381830E94D2480F900F90809160
:10379000230A83FF0BC000D08DEA98E0EDB7FEB797
:1037A000928381830E94D2480F900F908091230AC8
:1037B00084FF0BC000D082EA98E0EDB7FEB7928399
:1037C00081830E94D2480F900F9000D080EA98E049
:1037D000EDB7FEB7928381830E94D2480F900F907D
:1037E00008952AEF30E09BEF8091E10082FF04C052
:1037F0009093E100215030408091E80085FF02C0A5
:1038000080E008958091D80087FF15C08091E00086
:1038100080FD11C08091EB0080FD02C082E0089520
:103820008091EB0085FF02C083E0089521153105EA
:10383000D9F68AE0089581E008952AEF30E09BEF01
:103840008091E10082FF04C09093E100215030405C
:103850008091E80080FF02C080E008958091D80048
:1038600087FF15C08091E00080FD11C08091EB00C2
:1038700080FD02C082E008958091EB0085FF02C0C8
:1038800083E0089521153105D9F68AE0089581E095
:1038900008952AEF30E09BEF8091E10082FF04C0A1
:1038A0009093E100215030408091E80080FF02C0F9
:1038B00080E008958091D80087FF15C08091E000D6
:1038C00080FD11C08091EB0080FD02C082E0089570
:1038D0008091EB0085FF02C083E00895211531053A
:1038E000D9F68AE0089581E008952AEF30E09BEF51
:1038F0008091E10082FF04C09093E10021503040AC
:103900008091E80082FF02C080E008958091D80095
:1039100087FF15C08091E00080FD11C08091EB0011
:1039200080FD02C082E008958091EB0085FF02C017
:1039300083E0089521153105D9F68AE0089581E0E4
:1039400008959091EB0091609093EB008093EC00D0
:103950008091ED008270862B8093ED008091ED00C8
:1039600082608093ED008091EE00881F8827881F79
:1039700008959091F40080E090FD06C08F5F87303D
:1039800011F09695F9CF80E00895FB018093E9004E
:1039900004C081918093F10041508091E80085FF3F
:1039A00002C04423B1F7842F0895FB018093E900FE
:1039B00004C08091F100819341508091E80085FF1F
:1039C00002C04423B1F7842F08958093E900EBEE01
:1039D000F0E080818062808308958091D8008F7BA1
:1039E0008093D8008091D90081FF20C01092E90017
:1039F0008091EB0080FD1AC01092E9008091EB00ED
:103A000081608093EB001092EC008091ED00827059
:103A100080638093ED008091ED0082608093ED00E3
:103A20008091EE00881F8827881F089580E0089500
:103A3000EF92FF921F93CF93DF930E9470427C011D
:103A40008091F1008091F1008091F1004091F100AE
:103A5000E114F10409F47EC0282F30E0942F80E0B7
:103A6000282B392BF70101900020E9F7EE19FF0907
:103A70001E2F110FC12FD0E0C217D30710F0E9019C
:103A80000AC01092250ACE018F739070892B19F409
:103A900081E08093250A8091E800877F8093E80089
:103AA0000E941D1C882309F03EC01093F10083E0A2
:103AB0008093F100229729F48091E8008E7F809313
:103AC000E80012E01EC00E941D1C882331F0809186
:103AD000EB0080628093EB001AC0103411F410E008
:103AE0000BC0F70181917F018093F1001092F100EA
:103AF00022971E5F209789F78091E8008E7F809340
:103B0000E800209721F08091E80082FFDCCF8091CF
:103B1000E80082FD15C08091250A813079F40E9469
:103B20001D1C882331F08091EB0080628093EB00B4
:103B300011C08091E8008E7F8093E8000E94751C80
:103B40008091E8008B7F8093E8008091E8008F7778
:103B50008093E800DF91CF911F91FF90EF9008953F
:103B6000DF92EF92FF920F931F93CF93DF93182F63
:103B70000E94A2417C01009721F4812F0E94181D10
:103B8000A1C08091F1008091F1008091F100C82FD7
:103B9000D0E02091F100922F80E0C82BD92BC701F3
:103BA0000E943C480196D82EDD0C0D2D10E00C171C
:103BB0001D0710F08E010AC01092250AC8018F73EC
:103BC0009070892B19F481E08093250A8091E80098
:103BD000877F8093E8000E941D1C882309F058C04D
:103BE0000115110509F46CC0D092F1009801215023
:103BF000304011F411E009C083E08093F100E90145
:103C0000219711F012E032C012E08091E8008E7F1F
:103C10008093E800C0E0D0E029C00E941D1C8823EA
:103C200031F08091EB0080628093EB0025C010346E
:103C300011F410E016C0F7010894E11CF11CE491A6
:103C4000E093F100812F8F5FC130D10521F4182F4F
:103C5000C0E0D0E006C01092F10022971E5F2097CE
:103C600031F78091E8008E7F8093E800209721F063
:103C70008091E80082FFD1CF8091E80082FD15C0DD
:103C80008091250A813079F40E941D1C882331F02F
:103C90008091EB0080628093EB0014C08091E8007B
:103CA0008E7F8093E8000E94751C8091E8008B7FD6
:103CB0008093E8008091E8008F778093E80002C04D
:103CC00010E0A3CFDF91CF911F910F91FF90EF9064
:103CD000DF900895FF920F931F939091F1009093BE
:103CE0002D0A6091F1006630F9F0673068F46130B8
:103CF00009F415C1613008F47DC1633009F447C18E
:103D0000653009F0C8C1D2C0693009F4EFC06A302B
:103D100020F4683009F0BFC1BCC06A3009F49DC10D
:103D20006B3009F0B8C19CC1903809F0B4C1109251
:103D3000250A1091F1008091F100823059F0833012
:103D4000F1F0813011F50E944C418093A1120E9444
:103D5000494108C0812F0E9473418093A112812F95
:103D60000E944E419093A3128093A2128091F10081
:103D70008091F1000091F100F090F10014C0112346
:103D800021F0812F0E94B01D89C19091F100909186
:103D9000F1000091F100F090F100612F0E9491413B
:103DA000882309F44EC18091E800877F8093E80062
:103DB0008091A112801710F0FF2061F090E08F73C6
:103DC0009070892B21F481E08093250A36C01092EF
:103DD000250A33C00093A11230C00E941D1C882305
:103DE00041F48091A112E091A212F091A31290E00F
:103DF00017C08091EB0080628093EB0026C0282FD3
:103E00002150903439F4E093A212F093A3128093DE
:103E1000A1120EC09F5F84918093F1003196822F92
:103E2000882369F7E093A212F093A3121092A112D3
:103E30008091E8008E7F8093E8008091A112882312
:103E400021F08091E80082FFC8CF8091E80082FDD8
:103E500015C08091250A813079F40E941D1C8823A9
:103E600031F08091EB0080628093EB0017C180916C
:103E7000E8008E7F8093E8000E94751C8091E80026
:103E80008B7F8093E8008091E8008F778093E80033
:103E900005C1903809F0FFC08091E800877F8093CA
:103EA000E8008091A0128093F100E1CF992309F0FE
:103EB000F2C09091E3008091F1008F779078892B88
:103EC0008093E3008091E800877F8093E8008091F1
:103ED000E8008E7F8093E8008091E80080FFFCCFAF
:103EE0008091E30080688093E300D8C0992309F0B3
:103EF000D2C09091F1008091E800877F8093E80024
:103F00009093A0128091E8008E7F8093E8008091CA
:103F1000E80080FFFCCF892F0E945342BFC093303E
:103F200008F0B9C0992309F4B9C0913009F4B6C0BA
:103F30008091F1009091F100882309F0AFC0E091E9
:103F4000F100EF77E093E9008091EB0080FFA6C0DD
:103F5000EE23B1F08091EB0080618093EB0081E073
:103F600090E00E2E02C0880F991F0A94E2F780930A
:103F7000EA001092EA008091EB0088608093EB00E9
:103F80001092E900F0E0EA5DF54F108227C093300F
:103F900008F081C0913009F481C0923009F07EC0F0
:103FA0008091F1009091F100882309F077C0E091B1
:103FB000F100EF7709F472C0E093E9008091EB0023
:103FC00080FF15C08091EB0080628093EB0010921F
:103FD000E900F0E0EA5DF54F81E080838091E80040
:103FE000877F8093E8008091E8008E7F4FCF10920A
:103FF000E90054C0892F8058833008F04CC080916C
:10400000F1008091F100E091F100913821F09238B7
:1040100051F09038B1F48091E800877F8093E800F8
:104020001092F10017C08091E800877F8093E8002C
:10403000F0E0EF77F070EA5DF54F80818093F1005A
:1040400009C08091EB0080628093EB008091E800D2
:10405000877F1CCF1092F1000ACF9138E1F41EC087
:104060009130E1F46091F1008091F1008091F100D4
:104070000E94FE41882391F08091E800877F809321
:10408000E8008091E8008E7F8093E8008091E8004E
:1040900080FFFCCFF1CE892F0E94B1421092E9003F
:1040A0008091E80083FF05C08091EB0080628093DF
:1040B000EB008091E800877F8093E8008091E80022
:1040C0008B7F8093E8008091E8008F778093E800F1
:1040D0008091E8008E7F8093E8008091E8008F77E0
:1040E0008093E8001F910F91FF900895789483B713
:1040F000817F846083BF83B7816083BF889583B7E6
:104100008E7F83BF08958EE089BD09B400FEFDCF88
:104110008091D8008F7D8093D8008091D8008160F5
:104120008093D8008091E20088608093E2000E9432
:10413000ED1C8091E0008E7F8093E00008951F9336
:10414000CF93DF93EC01162F623879F51092E900D6
:104150008091E80083FF02C00E946A1E80911D0AC0
:104160008823F9F083E08093E9008091E80085FFDF
:1041700018C081E08093F1001092F1001092F100DC
:104180001092F1001092F1001092F1001092F100E3
:104190001092F1008091E8008F778093E8001092F0
:1041A0001D0A8EE691E00E94902D888199810097EA
:1041B00029F08C50914009F056C051C08091D70031
:1041C00081608093D7008091D7008F7B8093D70048
:1041D0008091D70080688093D70078948091D80030
:1041E0008F768093D8008091D80080698093D80022
:1041F0008091D8008F7B8093D8008091D800816017
:104200008093D80078948EE691E00E94902D809162
:10421000D90080FF09C08091A412882329F481E08D
:104220008093A4120E94832080912E0A90912F0ADD
:1042300090FF10C080912E0A90912F0A9E7F90933C
:104240002F0A80932E0A81E08093EA001092EA0000
:104250001092A0128CE091E09983888302C01F32F3
:10426000B1F281E003C01982188283E0DF91CF911F
:104270001F9108951F920F920FB60F920BB60F92D7
:1042800011242F933F934F935F936F937F938F935B
:104290009F93AF93BF93EF93FF938EE691E06FE20E
:1042A00040E050E00E94302D8091DA0080FF31C064
:1042B0008091D80080FF2DC08EEF8093DA0080912E
:1042C000D90080FF19C081E08093A41280912E0A4A
:1042D00090912F0A826090932F0A80932E0A8091EA
:1042E000E20088608093E2000E9483208091E000D9
:1042F0008E7F8093E0000DC01092A4121092A01245
:1043000080912E0A90912F0A846090932F0A8093B7
:104310002E0A8091E10082FF07C08091E20082FFB7
:1043200003C08BEF8093E1008091E10080FF29C002
:104330008091E20080FF25C08EEF8093E1008091A4
:10434000E20080618093E2008FEE8093E100809133
:10435000D80080628093D80080912E0A90912F0A15
:10436000806290932F0A80932E0A789483B7817F7E
:10437000846083BF83B7816083BF889583B78E7F56
:1043800083BF8091E10084FF1AC08091E20084FF26
:1043900016C08091D8008F7D8093D8008FEE8093D7
:1043A000E1008091E2008F7E8093E20080912E0AEE
:1043B00090912F0A806490932F0A80932E0A809107
:1043C000E10085FF1AC08091E20085FF16C0809150
:1043D000E2008F7E8093E2008FED8093E100809178
:1043E000E2008F7D8093E20080912E0A90912F0A47
:1043F000806890932F0A80932E0A8091E10083FFBA
:1044000012C08091E20083FF0EC087EF8093E1002D
:104410000E94ED1C80912E0A90912F0A916090933A
:104420002F0A80932E0AFF91EF91BF91AF919F9138
:104430008F917F916F915F914F913F912F910F904D
:104440000BBE0F900FBE0F901F9018952091A912D0
:104450003091AA124091AB125091AC1290E0A0E0C2
:10446000B0E0280F391F4A1F5B1F2093A912309319
:10447000AA124093AB125093AC122091A512309126
:10448000A6124091A7125091A812280F391F4A1F57
:104490005B1F2093A5123093A6124093A71250934E
:1044A000A8120895F8941092B60016BC8DE387BD4B
:1044B00092E094BD85E085BD85B385BB90936E0089
:1044C000789408952091300A3091310A8091300A11
:1044D0009091310A28173907A9F7C901089507C033
:1044E00022E330E0000021503040E1F701970097CF
:1044F000B9F70895BC014091300A5091310A80917A
:10450000300A9091310A48175907A9F72091300ACB
:104510003091310A8091300A9091310A2817390779
:10452000A9F7241B350B2617370780F30895089544
:104530002091A9123091AA124091AB125091AC1265
:104540008091A9129091AA12A091AB12B091AC12D5
:10455000281739074A075B0759F7B901CA010895B7
:104560001F920F920FB60F920BB60F9211242F933A
:104570003F934F935F936F937F938F939F93AF93EB
:10458000BF93EF93FF938091300A9091310A019687
:104590009093310A8093300A8091320A8F5F809322
:1045A000320A8091320A8D37A9F41092320A809132
:1045B000A9129091AA12A091AB12B091AC120196DF
:1045C000A11DB11D8093A9129093AA12A093AB12C2
:1045D000B093AC120E94602E892B11F00E94DF2E46
:1045E000FF91EF91BF91AF919F918F917F916F91CB
:1045F0005F914F913F912F910F900BBE0F900FBE87
:104600000F901F90189584B7877F84BF88E10FB6FD
:10461000F89480936000109260000FBE08952FE020
:1046200088E190E00FB6F894A895809360000FBEE3
:10463000209360000895A895089588E10FB6F89436
:1046400080936000109260000FBE0895F89428E0F7
:1046500088E190E00FB6F894A895809360000FBEB3
:1046600020936000FFCF80E090EFA1E0B0E0ABBF0F
:10467000FC018791969120E08F5F9F4F09F021E028
:10468000822F08958091E00081608093E000F8948B
:104690008AEC9CEAA2E4BCED8093DD199093DE19CC
:1046A000A093DF19B093E01920E040E05DE7CA0174
:1046B0000197F1F72F5F2038D1F78AEC9CEAA2E44A
:1046C000BCED8093DD199093DE19A093DF19B093B0
:1046D000E0190E94262308958093330A0895DF93FA
:1046E000CF9300D00F92CDB7DEB730916600109215
:1046F000700010926F008091B60080628093B600C7
:1047000081E08093B1008FE890E00197F1F78FB7D7
:104710008983F89420E861E050E84FEF60938100CE
:104720008091B6008B71E1F75093B2001092850032
:104730001092840047BBB89BFECF8091840090917B
:1047400085009B838A83109281008A819B81875F89
:10475000934760F4809166008E3719F1809166006E
:104760008F3FF9F0809166008F5F12C08A819B8134
:104770008D52904810F491E00EC08091660081380F
:1047800081F080916600882361F0809166008150FD
:104790008093660090E0215029F0992309F4BECF60
:1047A00001C090E08091660080933D13992311F43D
:1047B00030936600309366001092B1008091B6008D
:1047C0008F7D8093B60089818FBF0F900F900F90DF
:1047D000CF91DF9108958091350A08958091340A30
:1047E0008091340A90E0089581E06FE140E00E94FA
:1047F0001229813021F020E030E0813111F421E0F4
:1048000030E0C901089581E06FE140E00E94122983
:10481000823021F0823111F081E0089580E0089526
:1048200081E06FE140E00E941229982F815182308F
:10483000B8F39F31A9F3913099F3923089F3089539
:1048400080913C138823A9F08091360A8823A1F433
:1048500081E06FE140E00E941229982F815182305F
:1048600058F09F3149F0913039F0923029F0109290
:104870003C1381E090E0089581E08093380AF9CFFD
:104880001C9B02C080E1089585E06FE040E00E943B
:10489000122908950F931F93182F883059F08630EE
:1048A00049F0893039F0863129F0893119F022E454
:1048B00030E050C01C9B03C024E430E04BC00E9499
:1048C000102481E06FE140E00E941229082F1817A0
:1048D00009F43EC0183061F42C988DE090E0019707
:1048E000F1F782E06FE140E023E00E94252922C039
:1048F000193139F4863199F482E06FE140E029E022
:1049000008C0163161F4893151F482E06FE140E072
:1049100026E00E94252983E090E00197F1F782E0EC
:104920006FE140E0212F0E942529083019F489E623
:1049300091E002C083E090E00197F1F781E06FE140
:1049400040E00E941229811719F023E430E002C0F0
:1049500020E430E0C9011F910F91089580913B132D
:10496000882339F02C988FEA92E00197F1F71092A2
:104970003B130E94102486E10E944A2481E0809328
:104980003C1308958091370A882321F00E94AE24B9
:104990001092370A8091380A882321F010923C1334
:1049A0001092380A1092360A089580913C13882399
:1049B00051F48091360A882321F081E08093370AF0
:1049C00002C00E94AE2481E090E008950F931F93EF
:1049D000CF93DF938091360A882319F0C1E0D0E0AD
:1049E00027C080913C13882319F000E010E004C038
:1049F0000E94D52401E010E088E060E847E021E073
:104A00000E94252989E191E00197F1F781E060E8B2
:104A100047E00E9412298823C9F381E060E446E060
:104A20000E941229C82FD0E0012B11F00E942024EF
:104A3000CE01DF91CF911F910F910895282F1C99DE
:104A400008C0803108F02FE085E06FE040E00E9470
:104A50002529089591E09093360A0E941E250E9410
:104A6000C22408951F93182F0E9410241093350A12
:104A700088E06FE140E0212F0E9425291F910895D1
:104A80000E94322586E00E944A240895EF92FF9208
:104A90000F931F937C018BE20E94DC28F701819326
:104AA0008F018AE20E94DC28F70181837801089453
:104AB000E11CF11C89E20E94DC28F8018183870156
:104AC0000F5F1F4F88E20E94DC28F7018183780185
:104AD0000894E11CF11C87E20E94DC28F801818324
:104AE00087010F5F1F4F86E20E94DC28F701818358
:104AF00085E20E94DC28F801818384E20E94DC28A0
:104B00000F5F1F4FF80181831F910F91FF90EF906E
:104B100008950F931F9380913C13882311F000E0B8
:104B200003C00E94D52401E081E06FE140E00E94D3
:104B30001229863111F0813129F487E00E94DC28A6
:104B4000182F09C086E06FE140E00E94122993E02F
:104B5000899F102D1124002311F00E942024812F01
:104B60001F910F9108950F931F93CF93DF93182FE9
:104B700081E08093360A00913C1380913B13882397
:104B800019F02C9810923B130E94102489E10E9486
:104B90004A2486E00E940309892B19F4C0E0D0E082
:104BA00009C00E944024C82F86E00E94030981505A
:104BB0000E941E252C9A2C981E5F89E39AE0612F93
:104BC0000E9490290E94102482E060EE45E00E943D
:104BD0001229182F86E00E940309892B19F08C2FC7
:104BE0000E941E25002311F00E94AE2480913C13E8
:104BF000882311F40E94AE240E94C224113011F4C3
:104C000010E015C0133099F480917E1390917F13BA
:104C1000A0918013B09181130196A11DB11D8093C5
:104C20007E1390937F13A0938013B0938113812FF1
:104C300090E0DF91CF911F910F910895BF92CF9295
:104C4000DF92EF92FF920F931F93DF93CF9300D0E9
:104C5000CDB7DEB7D82EC92EF62EB72E81E08093C1
:104C6000360A8091861390918713A0918813B09192
:104C700089130196A11DB11D80938613909387130C
:104C8000A0938813B093891382E0E82EE60EE7FE26
:104C900003C00FEF1FEF1FC009E31AE0C8016D2D1D
:104CA0007C2D4F2D5B2D0E9460488D2D9C2D6F2DEE
:104CB0007B2D40E050E00E944E319A8389836E2D17
:104CC00070E0FB01E95CF54F91838083C8010E948D
:104CD0008E3D00E010E00E94C224C8010F900F90AA
:104CE000CF91DF911F910F91FF90EF90DF90CF90C8
:104CF000BF9008950F931F93CF93DF93EC018B0127
:104D00000E94633C882319F420E030E00BC0CE0100
:104D1000B8010E941E269C01009721F4C8010E9440
:104D2000B3259C01C901DF91CF911F910F91089587
:104D300080913C13882341F085E891E00E94902DFA
:104D400081E08093340A10C08091B71290E0FC019A
:104D5000F695FE2FEE27F795E795880F991FE80F38
:104D6000F91FE854FD4E108281E090E00895FF9213
:104D70000F931F93CF93DF93082FF92E2091B71233
:104D8000822F90E0FC01F695FE2FEE27F795E79530
:104D9000880F991FE80FF91FE854FD4E1081112369
:104DA00009F4F6C080913C13882309F4F1C017FF81
:104DB00023C0822F90E0FC01F695FE2FEE27F79599
:104DC000E795880F991FE80FF91FE854FD4E1082F0
:104DD0008091761390917713A0917813B091791305
:104DE0000196A11DB11D8093761390937713A09324
:104DF0007813B0937913CCC0133018F5822F90E05C
:104E0000FC01F695FE2FEE27F795E795880F991F81
:104E1000E80FF91FE854FD4E1082809172139091B3
:104E20007313A0917413B09175130196A11DB11D58
:104E30008093721390937313A0937413B0937513AC
:104E4000A7C0C12FD0E022976C177D0718F5822FDD
:104E500090E0FC01F695FE2FEE27F795E795880F79
:104E6000991FE80FF91FE854FD4E108280916E13D0
:104E700090916F13A0917013B09171130196A11DC1
:104E8000B11D80936E1390936F13A0937013B09322
:104E900071137EC0822F90E09C013695322F22271D
:104EA00037952795880F991F280F391F27543D4E96
:104EB000802F9F2DB901412F50E00E946048209122
:104EC000B712822F90E0FC01F695FE2FEE27F795A2
:104ED000E795880F991FE80FF91FE85CFC4E808169
:104EE0008093AD12822F90E0FC01F695FE2FEE2705
:104EF000F795E795880F991FE80FF91FE854FD4EC5
:104F000010821092B71280E090E0FC01F695FE2F1F
:104F1000EE27F795E795880F991FE80FF91FE854DA
:104F2000FD4E8081882311F00E94982687E00E9420
:104F3000DC28682F8093AE128091B112882311F083
:104F4000681710F46093B11284E070E00E94F808D2
:104F50006091AD1283E070E00E94F80880918A139E
:104F600090918B13A0918C13B0918D130196A11D7C
:104F7000B11D80938A1390938B13A0938C13B093DD
:104F80008D13802F9F2D612F70E00E94403D02C045
:104F9000C0E0D0E0CE01DF91CF911F910F91FF9043
:104FA0000895CF93DF93EC0188819981009721F0D8
:104FB000865A9440F9F405C086EA94E09983888380
:104FC00002C0623811F081E018C01092340A0E94C9
:104FD00045090E94B40860E870E00E94B7261816E0
:104FE000190654F70E94AF08E091D201F091D30165
:104FF0000995E2CF1982188283E0DF91CF9108955D
:10500000AF92BF92CF92DF92EF92FF920F931F93D6
:10501000CF93DF93282F192F062FF72EEA0182E274
:10502000622F0E94F72883E2612F0E94F72880E216
:10503000602F0E94F72881E26F2D0E94F7282097A9
:10504000D1F18E010F5F1F4F8BE268810E94F7281C
:1050500068010894C11CD11C8AE269810E94F7286A
:1050600056010894A11CB11C89E2F80161810E94DB
:10507000F72875010894E11CF11C88E2F6016181B2
:105080000E94F72887010F5F1F4F87E2F5016181BA
:105090000E94F72886E2F70161810E94F72885E2E5
:1050A000F80161810E94F72884E20F5F1F4FF80129
:1050B00061810E94F728DF91CF911F910F91FF909E
:1050C000EF90DF90CF90BF90AF9008950F931F9314
:1050D0000DEF13E0C8010197F1F70E94BF2810926D
:1050E000B8121092B7121092B6122D982C988DE02B
:1050F00090E00197F1F72D9A82E06FE140E023E024
:105100000E942529C8010197F1F78DE10E94DC2852
:105110008EE10E94DC288EE06FE00E94F7288CE28E
:1051200060EF44E021E00E9425298CE26EE041E03E
:1051300025E00E9425298FE260E80E94F72886E09A
:105140000E94DC28682F8DE20E94F72889E06FE03A
:1051500040E023E00E94252985E060E847E021E067
:105160000E94252985E891E060E070E00E94632DAF
:105170000E94AE2481E090E01F910F91089510925B
:10518000BB0A1092BA0A249A259A84B1876084B91E
:1051900085B1836085B980E58CBD81E08DBD83E4F8
:1051A00080938100B59AEFE6F0E080818160808392
:1051B0008081806280830895DF93CF930F92CDB773
:1051C000DEB780689FB79983F89428988EBD0DB498
:1051D00007FEFDCF8EB51EBC0DB407FEFDCF8EB50C
:1051E000289A99819FBF0F90CF91DF910895DF9307
:1051F000CF930F92CDB7DEB7806C9FB79983F894A9
:1052000028988EBD0DB407FEFDCF8EB56EBD0DB4D2
:1052100007FEFDCF8EB5289A89818FBF0F90CF9161
:10522000DF910895FF920F931F93062FF42E0E9493
:10523000DC28082310E002C015950795FA94E2F7E0
:10524000802F1F910F91FF900895EF92FF920F937F
:105250001F93DF93CF9300D0CDB7DEB7182F062F63
:10526000E42EF22E0E94DC2889839981802F80957C
:10527000892389832981106C8FB78A83F8942898B1
:105280001EBD0DB407FEFDCF8EB58F2D90E002C080
:10529000880F991FEA94E2F70823202B2EBD0DB446
:1052A00007FEFDCF8EB5289A8A818FBF0F900F9091
:1052B000CF91DF911F910F91FF90EF900895DF93B1
:1052C000CF930F92CDB7DEB7FC018FB78983F894E7
:1052D000289880E28EBD0DB407FEFDCF8EB51EBCB2
:1052E0000DB407FEFDCF9EB590831EBC0DB407FE26
:1052F000FDCFDF0111968EB58D931EBC0DB407FE58
:10530000FDCF9150C1F78EB5E058FF4F819381E0FA
:105310008083289A89818FBF0F90CF91DF91089564
:10532000DF93CF930F92CDB7DEB79C018FB7898300
:10533000F894289880E68EBD0DB407FEFDCF8EB59B
:105340006EBD0DB407FEFDCF8EB5F901635070E060
:105350006F5F7F4F620F731F81918EBD0DB407FE8B
:10536000FDCF8EB5E617F707B9F7289A89818FBF69
:105370000F90CF91DF9108951F920F920FB60F9269
:1053800011248F939F938091BA0A9091BB0A019642
:105390009093BB0A8093BA0A9F918F910F900FBE92
:1053A0000F901F9018951F920F920FB60F920BB689
:1053B0000F9211242F933F934F935F936F937F939B
:1053C0008F939F93AF93BF93EF93FF93DF93CF930D
:1053D00000D0CDB7DEB78FB78A83F89428988FE8CE
:1053E0008EBD0DB407FEFDCF1EBC0DB407FEFDCF74
:1053F0009EB5289A8A818FBF92FD41C093FF20C03D
:1054000081E00E94DC288F7189838981813149F094
:105410008981863031F08981813019F08981863126
:1054200071F58091B61222E8829FC0011124885440
:105430009D4E0E945F291092B6120E9498261FC0AE
:1054400096FD1DC091FD1BC090FD19C097FF17C0B0
:105450008EE00E94DC28982F8FB78A83F8942898D2
:105460008EEC8EBD0DB407FEFDCF8EB59F779EBD31
:105470000DB407FEFDCF8EB5289A8A818FBF0F909D
:105480000F90CF91DF91FF91EF91BF91AF919F91DD
:105490008F917F916F915F914F913F912F910F90DD
:1054A0000BBE0F900FBE0F901F901895AC0120E01F
:1054B00030E0FA01E20FF31FDB01A20FB31F8C9162
:1054C00080832F5F3F4F2830310599F70895AC0155
:1054D00020E030E0FA01E20FF31FDB01A20FB31F5F
:1054E00090818C91981719F020E030E007C02F5F71
:1054F0003F4F2830310571F721E030E0C9010895B0
:10550000AC0120E030E0F901E25CFC4EDA01A20FD0
:10551000B31F8C9180832F5F3F4F2830310599F75F
:105520000895E091D001F091D10109950895E0919D
:105530002602F091270209950895E091D401F09197
:10554000D50109950895E091D601F091D70109950B
:10555000089580E090E008950895E0919F01F09112
:10556000A00109950895892B31F0E0919F01F091F8
:10557000A00109950895E091A101F091A20109957A
:10558000089580E090E008950F931F93DF93CF93E9
:10559000CDB7DEB7E0970FB6F894DEBF0FBECDBF34
:1055A0000E94E2088C010E94B408602FAE014F5F98
:1055B0005F4F0E948243882309F443C088A9980161
:1055C000281B3109C9010E949008892BD1F12E8135
:1055D000222361F18A859B853BEA8D3C930719F074
:1055E0008F5F9F4F71F5223071F028E030E0BE01EF
:1055F000645F7F4F21503040FB01E20FF31F808139
:105600008F3F21F007C022E030E0F1CF12161306E1
:105610008CF30CC089E10E94170989E10E940C09F2
:105620006EE373E10E94672A892B59F088E1BE017D
:105630006A5E7F4F0E941709E091B901F091BA01AB
:105640000995E0960FB6F894DEBF0FBECDBFCF919F
:10565000DF911F910F910895AF92BF92CF92DF9289
:10566000EF92FF920F931F93DF93CF93CDB7DEB7E7
:10567000E0970FB6F894DEBF0FBECDBF6C015B01A3
:10568000FE01319680E3DF011D928A95E9F781E002
:1056900089831A821B828CE00E9403098C831D82FD
:1056A0001F828091BC0A89878F5F8093BC0A03E0C8
:1056B00008878DEC9BEA9B878A8789E10E940C0909
:1056C00063EA71E00E94672A892B31F082E08E83C1
:1056D0008FEF8C878D8709C089E10E940C09BC017E
:1056E000CE010C960E94562A0E838DEC9BEA9D8B70
:1056F0008C8BCE0146966EE373E10E94562A0E947F
:10570000B4089FA78EA70E94E20888AB7E01089488
:10571000E11CF11CC7010E949845082F90E00E94EF
:105720006B08892B39F10E94C108BC01C701402FC9
:105730000E94C244E0909501F09096010E94C10839
:105740008C010E94EC08BC01C801F7010995C11445
:10575000D10481F0009719F0019761F404C0C501EC
:1057600060E070E003C0C50164E070E041E050E03B
:10577000F6010995E0960FB6F894DEBF0FBECDBFD7
:10578000CF91DF911F910F91FF90EF90DF90CF901D
:10579000BF90AF9008950E947B318093BC0AE09146
:1057A0009F01F091A001099508958091C90A8F5F2A
:1057B0008093C90A815008951F93CF93DF93EC0122
:1057C000162F888580FF1CC0EC81FD813097C1F0C9
:1057D000D093C00AC093BF0A82E08887CE010696A4
:1057E0000995992787FD90950297029710F0133835
:1057F00029F4CE01BE010E94042C02C081E08887FA
:10580000DF91CF911F910895CF92DF92EF92FF9297
:105810000F931F93CF93DF93EC017B01C090BF0ADE
:10582000D090C00A0091BD0A1091BE0AF80103C0D1
:105830000190F081E02DEC17FD0719F03097C1F7CA
:1058400046C0209709F443C08885882309F118864B
:105850000BC0C017D10729F0C80167E8AE010E944C
:10586000DC2BF801008111810115110591F7EC8104
:10587000FD81309769F0CE15DF0551F0D093C00A55
:10588000C093BF0ACE01069663E840E050E0099558
:10589000E091BD0AF091BE0ACE17DF0791F488812E
:1058A00099819093BE0A8093BD0A0DC08081918139
:1058B0008C179D0729F4888199819183808303C087
:1058C000FC01309799F7D092C00AC092BF0ADF91CD
:1058D000CF911F910F91FF90EF90DF90CF9008959F
:1058E0006091BF0A7091C00A0E94042C08958AE852
:1058F0008093C90A1092CB0A1092CA0A1092BE0A6B
:105900001092BD0A1092C00A1092BF0A08951F9308
:10591000CF93DF9380916C0B8823C1F010926C0BB6
:10592000C091BD0AD091BE0A11E00EC089858823BE
:1059300041F018871986CE0162E840E050E00E94ED
:10594000DC2B0990D881C02D209781F72091CA0ABD
:10595000222309F470C08091CB0A90E0FC01EE0F85
:10596000FF1FEE0FFF1FE80FF91FE453F54F608193
:105970006093C80A418152815093C70A4093C60A76
:105980000380F481E02DF093C50AE093C40A0196E8
:105990008F7190708093CB0A21502093CA0A309760
:1059A00009F042C08091BD0A9091BE0A9093C30A4B
:1059B0008093C20A11E031C080916C0B8823B9F04A
:1059C00010926C0BC091BD0AD091BE0A0EC08985A1
:1059D000882341F018871986CE0162E840E050E044
:1059E0000E94DC2B0990D881C02D209781F740912F
:1059F000C60A5091C70A8091C20A9091C30A609169
:105A0000C80A0E94DC2BE091C20AF091C30A80818F
:105A100091819093C30A8093C20A8091C20A9091A7
:105A2000C30A892B49F607C0613811F481E08087E9
:105A3000CF010E94DC2B80916C0B2091CA0A30E0D0
:105A4000280F311DC901DF91CF911F9108958091D9
:105A50006C0B2091CA0A30E0280F311DC90108954E
:105A6000DC012091CA0A203219F421E030E01AC08A
:105A70008091CB0A820F8F718093C10A90E0FC0164
:105A8000EE0FFF1FEE0FFF1FE80FF91FE453F54F56
:105A9000608352834183B483A3832F5F2093CA0A18
:105AA00020E030E0C90108950F931F930091BF0AD1
:105AB0001091C00A0E94DC2B1093C00A0093BF0A09
:105AC0001F910F910895CF93DF93DC01EB0160915B
:105AD000BD0A4091BE0A862F942F9C01F90103C094
