:100000000C94B6150C94D5150C94D5150C94D515E7
:100010000C94D5150C94D5150C94D5150C94D515B8
:100020000C94D5150C94362A0C94D5150C94D51532
:100030000C949D870C94D5150C94D5150C9486873B
:100040000C94297F0C94D5150C94D5150C94D515CA
:100050000C94AA7F0C94D5150C949E7F0C94D51506
:100060000C94D5150C94D5150C94D5150C94D51568
:100070000C94E87F0C94D5150C94DC7F0C94D5156A
:100080000C94EBCB0C94D5150C94D51548545450C6
:100090002F312E3020000D0A5365727665723A209A
:1000A000436F6E74696B692F322E302068747470E0
:1000B0003A2F2F7777772E736963732E73652F63CB
:1000C0006F6E74696B692F0D0A436F6E6E65637492
:1000D000696F6E3A20636C6F73650D0A00436F6E33
:1000E00074656E742D747970653A20000D0A0D0ADE
:1000F00000746578742F68746D6C00746578742F63
:1001000063737300746578742F68746D6C00746524
:1001100078742F63737300696D6167652F706E6704
:1001200000696D6167652F67696600696D61676564
:100130002F6A70656700746578742F706C61696EE2
:10014000006170706C69636174696F6E2F6F6374A6
:1001500065742D73747265616D006A7067002E732B
:1001600068746D6C002F696E6465782E68746D6CB0
:10017000002F3430342E68746D6C00343034204ECF
:100180006F7420666F756E6400323030204F4B0004
:100190004745542000526566657265723A002F74B7
:1001A00063702E7368746D6C0025213A202F68658A
:1001B000616465722E68746D6C0A3C68313E4375EB
:1001C0007272656E7420636F6E6E656374696F6EB4
:1001D000733C2F68313E3C62723E3C7461626C65D8
:1001E0002077696474683D2231303025223E3C74AA
:1001F000723E3C74683E4C6F63616C3C2F74683E89
:100200003C74683E52656D6F74653C2F74683E3C6B
:1002100074683E53746174653C2F74683E3C746826
:100220003E52657472616E736D697373696F6E733C
:100230003C2F74683E3C74683E54696D65723C2F77
:1002400074683E3C74683E466C6167733C2F74680A
:100250003E3C2F74723E0A2521207463702D636F1B
:100260006E6E656374696F6E730A3C2F7461626CA5
:10027000653E0A25212066696C652D73746174736F
:10028000202E002F726F626F74732E747874007555
:100290007365722D6167656E743A202A0A4469732A
:1002A000616C6C6F773A202F002F70726F636573EB
:1002B000732E7368746D6C0025213A202F68656178
:1002C0006465722E68746D6C0A3C68313E537973B4
:1002D00074656D2070726F6365737365733C2F680E
:1002E000313E3C62723E3C7461626C6520776964A9
:1002F00074683D2231303025223E3C74723E3C749D
:10030000683E49443C2F74683E3C74683E4E616DC3
:10031000653C2F74683E3C74683E54687265616445
:100320003C2F74683E3C74683E50726F6365737313
:100330002073746174653C2F74683E3C2F74723E68
:100340000A25212070726F6365737365730A3C2FF1
:100350007461626C653E0A25212066696C652D73A7
:1003600074617473202E0A002F3430342E68746D3B
:100370006C003C68746D6C3E3C626F64792062670F
:10038000636F6C6F723D227768697465223E3C63CF
:10039000656E7465723E3C68313E343034202D20E9
:1003A00066696C65206E6F7420666F756E643C2F95
:1003B00068313E3C68333E476F203C61206872657F
:1003C000663D222F223E686572653C2F613E2069A2
:1003D0006E73746561642E3C2F68333E3C2F6365F9
:1003E0006E7465723E3C2F626F64793E3C2F687478
:1003F0006D6C3E002F6865616465722E68746D6C6B
:10040000003C21444F43545950452048544D4C2002
:100410005055424C494320222D2F2F5733432F2F25
:100420004454442048544D4C20342E3031205472D2
:10043000616E736974696F6E616C2F2F454E222057
:1004400022687474703A2F2F7777772E77332E6F58
:1004500072672F54522F68746D6C342F6C6F6F73EA
:10046000652E647464223E0A3C68746D6C3E3C6880
:100470006561643E3C7469746C653E48756177657E
:1004800069204D6F746520313C2F7469746C653E32
:100490000A3C6C696E6B2072656C3D227374796CDA
:1004A0006573686565742220747970653D22746592
:1004B00078742F6373732220687265663D222F73F0
:1004C00074796C652E637373223E3C6C696E6B208D
:1004D00072656C3D2269636F6E2220687265663DAD
:1004E0002266617669636F6E2E706E672220747962
:1004F00070653D22696D6167652F706E67223E0AE7
:100500003C2F686561643E3C626F6479206267637A
:100510006F6C6F723D222366666665656322207488
:100520006578743D22626C61636B223E0A3C6469AB
:100530007620636C6173733D226D656E75626C6FBE
:10054000636B223E3C64697620636C6173733D2269
:100550006D656E75223E3C7020636C6173733D2245
:10056000626F726465722D7469746C65223E4D65AC
:100570006E753C2F703E3C7020636C6173733D223E
:100580006D656E75223E3C6120687265663D222F66
:10059000223E46726F6E7420706167653C2F613E2B
:1005A0003C62723E3C6120687265663D22737461F4
:1005B0007475732E7368746D6C223E537461747518
:1005C000733C2F613E3C62723E3C612068726566FE
:1005D0003D2266696C65732E7368746D6C223E46AD
:1005E000696C6520737461746973746963733C2FFB
:1005F000613E3C62723E3C6120687265663D2274D9
:1006000063702E7368746D6C223E4E6574776F72E2
:100610006B20636F6E6E656374696F6E733C2F61E0
:100620003E3C62723E3C6120687265663D2270729B
:100630006F636573732E7368746D6C223E537973A8
:1006400074656D2070726F6365737365733C2F61A1
:100650003E3C62723E3C6120687265663D22736575
:100660006E736F722E7368746D6C223E53656E7379
:100670006F722052656164696E67733C2F613E3C06
:100680002F703E3C2F6469763E3C2F6469763E0AAB
:100690003C64697620636C6173733D22636F6E7492
:1006A000656E74626C6F636B223E3C7020636C619C
:1006B00073733D22626F726465722D7469746C6528
:1006C000223E57656C636F6D6520746F207468659A
:1006D000203C6120687265663D22687474703A2F10
:1006E0002F7777772E736963732E73652F636F6E21
:1006F00074696B692F223E436F6E74696B693C2F7E
:10070000613E2077656220736572766572206F6E38
:1007100020487561776569204D6F74652031213CF3
:100720002F703E0A002F66696C65732E7368746DB6
:100730006C0025213A202F6865616465722E68740B
:100740006D6C0A3C68313E46696C65207374617457
:100750006973746963733C2F68313E3C62723E3C3E
:100760007461626C652077696474683D2231303051
:1007700025223E3C747220616C69676E3D226C6577
:100780006674223E3C74683E4E616D653C2F746811
:100790003E3C74683E41636365737365733C2F74BC
:1007A000683E3C2F74723E0A25212066696C652DD7
:1007B0007374617473202A0A3C2F7461626C653E05
:1007C0000A25213A202F666F6F7465722E68746D4A
:1007D0006C0A002F7374796C652E63737300683133
:1007E0007B746578742D616C69676E3A63656E74AD
:1007F00065723B666F6E742D73697A653A31347039
:10080000743B666F6E742D66616D696C793A6172C6
:1008100069616C2C68656C7665746963613B666FB1
:100820006E742D7765696768743A626F6C643B70AB
:10083000616464696E673A313070783B7D0A626F3B
:1008400064797B6261636B67726F756E642D636F31
:100850006C6F723A236666666565633B636F6C6FA7
:10086000723A626C61636B3B666F6E742D73697A6A
:10087000653A3870743B666F6E742D66616D696C95
:10088000793A617269616C2C68656C76657469632C
:10089000613B7D0A2E777261707B77696474683A78
:1008A0003938253B6D617267696E3A302061757425
:1008B0006F3B746578742D616C69676E3A6C656620
:1008C000743B666F6E742D66616D696C793A617206
:1008D00069616C2C68656C7665746963613B7D0A3F
:1008E0002E6D656E75626C6F636B7B6D617267698F
:1008F0006E3A3470783B77696474683A3135253BD9
:10090000666C6F61743A6C6566743B7061646469AF
:100910006E673A313070783B626F726465723A7319
:100920006F6C6964203170783B6261636B67726FD2
:10093000756E642D636F6C6F723A236666666364CE
:10094000323B746578742D616C69676E3A6C6566CC
:10095000743B666F6E742D73697A653A3970743BB7
:10096000666F6E742D66616D696C793A617269614A
:100970006C2C68656C7665746963613B7D0A2E63D7
:100980006F6E74656E74626C6F636B7B6D617267A2
:10099000696E3A3470783B77696474683A3530250B
:1009A0003B666C6F61743A6C6566743B706164643D
:1009B000696E673A313070783B626F726465723A83
:1009C00031707820646F747465643B6261636B6737
:1009D000726F756E642D636F6C6F723A77686974AD
:1009E000653B666F6E742D73697A653A3870743B37
:1009F000666F6E742D66616D696C793A61726961BA
:100A00006C2C68656C7665746963613B7D0A2E6E3B
:100A1000657773626C6F636B7B6D617267696E3A49
:100A20003470783B77696474683A3234253B666C7D
:100A30006F61743A6C6566743B70616464696E677B
:100A40003A313070783B626F726465723A736F6CE2
:100A50006964203170783B6261636B67726F756E99
:100A6000642D636F6C6F723A236666666364323B13
:100A7000746578742D616C69676E3A6C6566743B59
:100A8000666F6E742D73697A653A3870743B666F61
:100A90006E742D66616D696C793A617269616C2C56
:100AA00068656C7665746963613B7D0A2E70726956
:100AB0006E7461626C657B6D617267696E3A3470E9
:100AC000783B77696474683A3234253B666C6F61B1
:100AD000743A6C6566743B70616464696E673A3140
:100AE0003070783B626F726465723A303B6261636A
:100AF0006B67726F756E642D636F6C6F723A2366ED
:100B000066666565633B746578742D616C69676EB4
:100B10003A72696768743B666F6E742D73697A65A3
:100B20003A3870743B666F6E742D66616D696C79CE
:100B30003A617269616C2C68656C76657469636191
:100B40003B7D0A6469762E726669677B626F7264A8
:100B500065723A736F6C6964203170783B207465FC
:100B600078742D616C69676E3A6C6566743B706170
:100B70006464696E673A313070783B6D61726769A1
:100B80006E3A313070783B666F6E742D73697A659A
:100B90003A3870743B666C6F61743A726967687456
:100BA0003B7D0A7072652E6578616D706C657B6245
:100BB0006F726465723A736F6C6964203170783B50
:100BC0002070616464696E673A313070783B6D61A2
:100BD0007267696E3A313070783B746578742D6154
:100BE0006C69676E3A6C6566743B666F6E742D73E4
:100BF000697A653A3870743B666F6E742D66616D04
:100C0000696C793A617269616C2C68656C7665749F
:100C10006963613B77686974652D73706163653AD8
:100C20007072653B7D0A702E696E74726F7B6D61A8
:100C30007267696E2D6C6566743A323070783B6D00
:100C4000617267696E2D72696768743A32307078C4
:100C50003B666F6E742D73697A653A313070743B00
:100C6000666F6E742D66616D696C793A6172696147
:100C70006C2C68656C7665746963613B7D0A702EC7
:100C8000636C696E6B7B666F6E742D73697A653AFF
:100C9000313270743B666F6E742D66616D696C796C
:100CA0003A636F75726965722C6D6F6E6F737061E8
:100CB00063653B20746578742D616C69676E3A6377
:100CC000656E7465723B7D0A702E636C696E6B395C
:100CD0007B666F6E742D73697A653A3970743B6602
:100CE0006F6E742D66616D696C793A636F757269A8
:100CF00065722C6D6F6E6F73706163653B746578A0
:100D0000742D616C69676E3A63656E7465723B7DC4
:100D10000A702E72656C617465647B666F6E742DEB
:100D200073697A653A313070743B666F6E742D6604
:100D3000616D696C793A617269616C2C68656C7679
:100D400065746963613B746578742D616C69676E65
:100D50003A63656E7465723B7D0A696D672E7269D0
:100D60006768747B666C6F61743A72696768743B1C
:100D70006D617267696E3A313070783B7D0A696DDA
:100D8000672E6C6566747B666C6F61743A6C656621
:100D9000743B6D617267696E3A313070783B7D0AE1
:100DA000702E6669677B626F726465723A736F6CEE
:100DB0006964203170783B746578742D616C696763
:100DC0006E3A63656E7465723B70616464696E67E8
:100DD0003A313070783B6D617267696E3A313070CC
:100DE000783B666F6E742D73697A653A3770743B21
:100DF0007D0A702E726669677B626F726465723AF3
:100E0000736F6C6964203170783B746578742D6100
:100E10006C69676E3A63656E7465723B7061646499
:100E2000696E673A313070783B6D617267696E3A0E
:100E3000313070783B666F6E742D73697A653A371E
:100E400070743B666C6F61743A72696768743B7D5D
:100E50000A702E6C6669677B626F726465723A73A2
:100E60006F6C6964203170783B746578742D616CA7
:100E700069676E3A63656E7465723B70616464693C
:100E80006E673A313070783B6D617267696E3A31E6
:100E90003070783B666F6E742D73697A653A37707F
:100EA000743B666C6F61743A6C6566743B7D0A7066
:100EB0007B70616464696E672D6C6566743A31306D
:100EC00070783B7D0A702E6D61696C616464727B21
:100ED00070616464696E672D6C6566743A31307058
:100EE000783B666F6E742D73697A653A3770743B20
:100EF000666F6E742D66616D696C793A636F757299
:100F00006965722C7465726D696E616C3B7465788D
:100F1000742D616C69676E3A72696768743B7D0A0B
:100F2000702E72696768747B746578742D616C6962
:100F3000676E3A72696768743B7D0A702E626F72E1
:100F40006465722D7469746C657B746578742D6149
:100F50006C69676E3A63656E7465723B666F6E743A
:100F60002D73697A653A313470743B7061646469D9
:100F70006E673A3070783B6D617267696E3A3470B3
:100F8000783B6D617267696E2D626F74746F6D3A34
:100F9000313070783B636F6C6F723A626C61636B77
:100FA0003B6261636B67726F756E642D636F6C6F0C
:100FB000723A236666666362613B626F7264657251
:100FC0003A736F6C6964203170783B7D002F7570C7
:100FD0006C6F61642E68746D6C003C68746D6C3E5F
:100FE0003C626F64793E0A3C666F726D2061637487
:100FF000696F6E3D2275706C6F61642E68746D6CE4
:101000002220656E63747970653D226D756C74691C
:10101000706172742F666F726D2D6461746122202D
:101020006D6574686F643D22706F7374223E0A3C74
:10103000696E707574206E616D653D2275736572A1
:1010400066696C652220747970653D2266696C65FD
:10105000222073697A653D22353022202F3E0A3CDA
:10106000696E7075742076616C75653D2255706C83
:101070006F61642220747970653D227375626D69B9
:101080007422202F3E0A3C2F666F726D3E3C2F6209
:101090006F64793E3C2F68746D6C3E002F696E64FE
:1010A00065782E68746D6C0025213A2F686561643F
:1010B00065722E68746D6C0A3C7020636C6173738A
:1010C0003D22696E74726F223E4920616D20616E0F
:1010D00020203C6120687265663D22687474703A15
:1010E0002F2F7777772E61746D656C2E636F6D2F60
:1010F00064796E2F70726F64756374732F746F6F81
:101100006C735F636172642E6173703F66616D69B9
:101110006C795F69643D3637362666616D696C7936
:101120005F6E616D653D4D43552B576972656C650A
:10113000737326746F6F6C5F69643D343339352285
:101140003E41746D656C20526176656E3C2F613E48
:101150000A2072756E6E696E672074686520203C87
:101160006120687265663D22687474703A2F2F772B
:1011700077772E736963732E73652F636F6E74694F
:101180006B692F223E436F6E74696B693C2F613E21
:10119000206F7065726174696E672073797374650E
:1011A0006D2E20492068617665206120736D616C29
:1011B0006C203135304B42206D656D6F7279206245
:1011C0007574204920616D2076657279206661739F
:1011D00074210A3C62723E3C62723E4920616D207D
:1011E000636F6E6E656374656420746F20746865E8
:1011F000206E6574776F726B207573696E67203C23
:101200006120687265663D22687474703A2F2F778A
:1012100077772E697076362E6F7267223E69707608
:10122000363C2F613E0A207468726F7567682061D2
:10123000206C6F7720706F77657220203C6120688A
:101240007265663D22687474703A2F2F7777772E17
:10125000676F6F676C652E636F6D2F736561726367
:10126000683F713D366C6F7770616E223E366C6FF1
:101270007750414E3C2F613E20776972656C6573F3
:1012800073203C6120687265663D22687474703A10
:101290002F2F656E2E77696B6970656469612E6F9B
:1012A00072672F77696B692F494545455F38303242
:1012B0002E31352E34223E3830322E31352E343C0C
:1012C0002F613E2031304B627073206E6574776FF2
:1012D000726B2E200A3C62723E3C62723E5468651C
:1012E000203C6120687265663D22687474703A2FF4
:1012F0002F7777772E736963732E73652F253745A4
:101300006164616D2F636F6E74696B692F646F63C5
:10131000732D75697076362F6130313130382E6813
:10132000746D6C223E4A61636B6461773C2F613E51
:10133000206973206F7572206C696E6B20746F204A
:10134000746865205765622E2049662068652069AB
:1013500073206F66666C696E6520796F75206361B6
:101360006E27742067657420746F207573210A3CA2
:101370002F503E0A252166696C652D737461747364
:10138000202E0A002F73656E736F722E7368746D52
:101390006C0025213A202F6865616465722E68749F
:1013A0006D6C0A3C68313E53656E736F72205265F6
:1013B0006164696E67733C2F68313E3C62723E0A1D
:1013C00025212073656E736F72730A25212066696B
:1013D0006C652D7374617473202E002F73746174A7
:1013E00075732E7368746D6C0025213A202F686523
:1013F000616465722E68746D6C0A3C68343E4D7988
:10140000204164647265737365733C2F68343E0ACF
:101410002521206164647265737365730A3C6834C6
:101420003E4D7920636C6F736520667269656E64EA
:10143000733C2F68343E0A2521206E656967686217
:101440006F72730A3C68343E4D79206F7468657220
:1014500020667269656E64733C2F68343E0A2521EC
:1014600020726F757465730A3C68343E4D79205361
:10147000656E736F72733C2F68343E0A25212073AA
:10148000656E736F72730A3C2F7461626C653E0AFD
:1014900025212066696C652D7374617473202E0A92
:1014A000002F666F6F7465722E68746D6C003C2F30
:1014B0006469763E3C2F626F64793E3C2F68746DA0
:1014C0006C3E0000009E01A901DA00C31483028F64
:1014D000021A00CB14A902B802B000D31468037238
:1014E000038200DB14F40301042403E31425073210
:1014F00007A100EB14D307DE07EF07F314CD0FDAD3
:101500000FC200FB149C10A810DC02031584139278
:101510001349000B15DB13E913B8001315A114AE22
:101520001415003C656D3E5061636B6574733A3C05
:101530002F656D3E2054783D2535642052783D2539
:1015400035642054784C3D2535642052784C3D2537
:10155000356420525353493D25326464426D0A007C
:101560003C656D3E526164696F206F6E2074696DD9
:101570006520203A3C2F656D3E20253032643A25A7
:101580003032643A25303264202825642E253032EA
:10159000642525293C62723E003C656D3E536C65B6
:1015A0006570696E672074696D65203A3C2F656DC2
:1015B0003E20253032643A253032643A2530326498
:1015C000202825642525293C62723E003C656D3E3D
:1015D000456C61707365642074696D6572203A3C76
:1015E0002F656D3E20253032643A253032643A252D
:1015F0003032643C62723E003C656D3E54656D70F5
:10160000657261747572653A3C2F656D3E20257375
:10161000202020203C656D3E426174746572793AE9
:101620003C656D3E2025733C62723E005B557064E4
:1016300061746564202564207365636F6E64732034
:1016400061676F5D3C62723E3C62723E003C636F5C
:1016500064653E00286E6F6E65293C62723E003CF8
:101660002F636F64653E5B526F6F6D20666F7220F3
:101670002575206D6F72655D00293C62723E002900
:1016800020256C75733C62723E00282575202876F3
:10169000696120003C62723E003C747220616C699A
:1016A000676E3D2263656E746572223E3C74643ED3
:1016B00025703C2F74643E3C74643E25733C2F744B
:1016C000643E3C74643E25703C2F74643E3C7464FC
:1016D0003E25733C2F74643E3C2F74723E0D0A000D
:1016E0002D25753C2F74643E3C74643E25733C2F5D
:1016F00074643E3C74643E25753C2F74643E3C74B7
:10170000643E25753C2F74643E3C74643E25632022
:1017100025633C2F74643E3C2F74723E0D0A003CDE
:10172000747220616C69676E3D2263656E746572C8
:10173000223E3C74643E25643C2F74643E3C7464D9
:101740003E00253575003C74723E3C74643E3C613D
:1017500020687265663D222573223E25733C2F6109
:101760003E3C2F74643E3C74643E25643C2F74649C
:101770003E003C7020636C6173733D7269676874EE
:101780003E3C62723E3C62723E3C693E5468697304
:10179000207061676520686173206265656E2073E3
:1017A000656E742025752074696D65733C2F693EE4
:1017B0003C2F6469763E3C2F626F64793E3C2F6813
:1017C000746D6C3E0066696C652D73746174730092
:1017D0007463702D636F6E6E656374696F6E7300F2
:1017E00070726F63657373657300616464726573AF
:1017F000736573006E65696768626F727300726FFC
:10180000757465730073656E736F727300434C4F2C
:101810005345440053594E2D524356440053594E9C
:101820002D53454E540045535441424C495348456D
:10183000440046494E2D574149542D310046494EEA
:101840002D574149542D3200434C4F53494E4700C8
:1018500054494D452D57414954004C4153542D4155
:10186000434B004E4F4E450052554E4E494E470099
:1018700043414C4C454400C6A56363F8847C7CEE30
:10188000997777F68D7B7BFF0DF2F2D6BD6B6BDE21
:10189000B16F6F9154C5C56050303002030101CE65
:1018A000A96767567D2B2BE719FEFEB562D7D74D8A
:1018B000E6ABABEC9A76768F45CACA1F9D828289C9
:1018C00040C9C9FA877D7DEF15FAFAB2EB59598EF6
:1018D000C94747FB0BF0F041ECADADB367D4D45F23
:1018E000FDA2A245EAAFAF23BF9C9C53F7A4A4E49A
:1018F0009672729B5BC0C075C2B7B7E11CFDFD3D1F
:10190000AE93934C6A26266C5A36367E413F3FF59D
:1019100002F7F7834FCCCC685C343451F4A5A5D1E1
:1019200034E5E5F908F1F1E2937171AB73D8D8624F
:101930005331312A3F1515080C04049552C7C74688
:101940006523239D5EC3C33028181837A196960AD5
:101950000F05052FB59A9A0E090707243612121B98
:101960009B8080DF3DE2E2CD26EBEB4E6927277FAF
:10197000CDB2B2EA9F7575121B09091D9E8383586B
:10198000742C2C342E1A1A362D1B1BDCB26E6EB43E
:10199000EE5A5A5BFBA0A0A4F65252764D3B3BB7E1
:1019A00061D6D67DCEB3B3527B2929DD3EE3E35E1B
:1019B000712F2F13978484A6F55353B968D1D100A2
:1019C000000000C12CEDED40602020E31FFCFC79FD
:1019D000C8B1B1B6ED5B5BD4BE6A6A8D46CBCB674E
:1019E000D9BEBE724B393994DE4A4A98D44C4CB0B9
:1019F000E85858854ACFCFBB6BD0D0C52AEFEF4F00
:101A0000E5AAAAED16FBFB86C543439AD74D4D6662
:101A1000553333119485858ACF4545E910F9F9048A
:101A2000060202FE817F7FA0F0505078443C3C25A6
:101A3000BA9F9F4BE3A8A8A2F351515DFEA3A380D8
:101A4000C04040058A8F8F3FAD929221BC9D9D7012
:101A5000483838F104F5F563DFBCBC77C1B6B6AFE2
:101A600075DADA4263212120301010E51AFFFFFDFC
:101A70000EF3F3BF6DD2D2814CCDCD18140C0C26D1
:101A8000351313C32FECECBEE15F5F35A297978847
:101A9000CC44442E3917179357C4C455F2A7A7FC5A
:101AA000827E7E7A473D3DC8AC6464BAE75D5D32B4
:101AB0002B1919E6957373C0A06060199881819EF7
:101AC000D14F4FA37FDCDC44662222547E2A2A3B7E
:101AD000AB90900B8388888CCA4646C729EEEE6B84
:101AE000D3B8B8283C1414A779DEDEBCE25E5E16DB
:101AF0001D0B0BAD76DBDBDB3BE0E0645632327472
:101B00004E3A3A141E0A0A92DB49490C0A06064864
:101B10006C2424B8E45C5C9F5DC2C2BD6ED3D34329
:101B2000EFACACC4A6626239A8919131A49595D36B
:101B300037E4E4F28B7979D532E7E78B43C8C86E96
:101B4000593737DAB76D6D018C8D8DB164D5D59C61
:101B5000D24E4E49E0A9A9D8B46C6CACFA5656F3F3
:101B600007F4F4CF25EAEACAAF6565F48E7A7A47BE
:101B7000E9AEAE101808086FD5BABAF08878784A7E
:101B80006F25255C722E2E38241C1C57F1A6A673D7
:101B9000C7B4B49751C6C6CB23E8E8A17CDDDDE825
:101BA0009C74743E211F1F96DD4B4B61DCBDBD0D47
:101BB000868B8B0F858A8AE09070707C423E3E71E6
:101BC000C4B5B5CCAA666690D8484806050303F7A5
:101BD00001F6F61C120E0EC2A361616A5F3535AEC6
:101BE000F9575769D0B9B9179186869958C1C13A42
:101BF000271D1D27B99E9ED938E1E1EB13F8F82B7C
:101C0000B3989822331111D2BB6969A970D9D90749
:101C1000898E8E33A794942DB69B9B3C221E1E1555
:101C2000928787C920E9E98749CECEAAFF5555504A
:101C3000782828A57ADFDF038F8C8C59F8A1A109B9
:101C40008089891A170D0D65DABFBFD731E6E684A2
:101C5000C64242D0B8686882C3414129B099995AB6
:101C6000772D2D1E110F0F7BCBB0B0A8FC54546DF7
:101C7000D6BBBB2C3A161663C6A5637CF8847C776A
:101C8000EE99777BF68D7BF2FF0DF26BD6BD6B6F15
:101C9000DEB16FC59154C530605030010203016759
:101CA000CEA9672B567D2BFEE719FED7B562D7ABC1
:101CB0004DE6AB76EC9A76CA8F45CA821F9D82C9E3
:101CC0008940C97DFA877DFAEF15FA59B2EB594779
:101CD0008EC947F0FB0BF0AD41ECADD4B367D4A295
:101CE0005FFDA2AF45EAAF9C23BF9CA453F7A4724B
:101CF000E49672C09B5BC0B775C2B7FDE11CFD9353
:101D00003DAE93264C6A26366C5A363F7E413FF7ED
:101D1000F502F7CC834FCC34685C34A551F4A5E5CB
:101D2000D134E5F1F908F171E29371D8AB73D83190
:101D3000625331152A3F1504080C04C79552C72376
:101D4000466523C39D5EC3183028189637A19605B3
:101D50000A0F059A2FB59A070E090712243612802A
:101D60001B9B80E2DF3DE2EBCD26EB274E6927B2DD
:101D70007FCDB275EA9F7509121B09831D9E832CC6
:101D800058742C1A342E1A1B362D1B6EDCB26E5A68
:101D9000B4EE5AA05BFBA052A4F6523B764D3BD664
:101DA000B761D6B37DCEB329527B29E3DD3EE32F65
:101DB0005E712F8413978453A6F553D1B968D1006F
:101DC000000000EDC12CED20406020FCE31FFCB1C1
:101DD00079C8B15BB6ED5B6AD4BE6ACB8D46CBBE2B
:101DE00067D9BE39724B394A94DE4A4C98D44C5864
:101DF000B0E858CF854ACFD0BB6BD0EFC52AEFAA49
:101E00004FE5AAFBED16FB4386C5434D9AD74D33EC
:101E100066553385119485458ACF45F9E910F90255
:101E20000406027FFE817F50A0F0503C78443C9F26
:101E300025BA9FA84BE3A851A2F351A35DFEA3408E
:101E400080C0408F058A8F923FAD929D21BC9D3806
:101E5000704838F5F104F5BC63DFBCB677C1B6DA7B
:101E6000AF75DA2142632110203010FFE51AFFF32D
:101E7000FD0EF3D2BF6DD2CD814CCD0C18140C13D6
:101E8000263513ECC32FEC5FBEE15F9735A2974474
:101E900088CC44172E3917C49357C4A755F2A77E90
:101EA000FC827E3D7A473D64C8AC645DBAE75D194B
:101EB000322B1973E6957360C0A060811998814F29
:101EC0009ED14FDCA37FDC224466222A547E2A90D6
:101ED0003BAB90880B8388468CCA46EEC729EEB888
:101EE0006BD3B814283C14DEA779DE5EBCE25E0B2F
:101EF000161D0BDBAD76DBE0DB3BE0326456323A9D
:101F0000744E3A0A141E0A4992DB49060C0A06244A
:101F1000486C245CB8E45CC29F5DC2D3BD6ED3AC98
:101F200043EFAC62C4A6629139A8919531A495E4BF
:101F3000D337E479F28B79E7D532E7C88B43C837DA
:101F40006E59376DDAB76D8D018C8DD5B164D54E74
:101F50009CD24EA949E0A96CD8B46C56ACFA56F4A0
:101F6000F307F4EACF25EA65CAAF657AF48E7AAE54
:101F700047E9AE08101808BA6FD5BA78F088782506
:101F80004A6F252E5C722E1C38241CA657F1A6B46D
:101F900073C7B4C69751C6E8CB23E8DDA17CDD74D6
:101FA000E89C741F3E211F4B96DD4BBD61DCBD8B51
:101FB0000D868B8A0F858A70E090703E7C423EB51C
:101FC00071C4B566CCAA664890D84803060503F6E6
:101FD000F701F60E1C120E61C2A361356A5F355718
:101FE000AEF957B969D0B986179186C19958C11D04
:101FF0003A271D9E27B99EE1D938E1F8EB13F898EE
:102000002BB3981122331169D2BB69D9A970D98E2B
:1020100007898E9433A7949B2DB69B1E3C221E8766
:10202000159287E9C920E9CE8749CE55AAFF5528E0
:10203000507828DFA57ADF8C038F8CA159F8A1890D
:102040000980890D1A170DBF65DABFE6D731E64260
:1020500084C64268D0B8684182C3419929B0992D9D
:102060005A772D0F1E110FB07BCBB054A8FC54BB78
:102070006DD6BB162C3A166363C6A57C7CF88477B4
:1020800077EE997B7BF68DF2F2FF0D6B6BD6BD6F11
:102090006FDEB1C5C5915430306050010102036755
:1020A00067CEA92B2B567DFEFEE719D7D7B562ABBD
:1020B000AB4DE67676EC9ACACA8F4582821F9DC9DF
:1020C000C989407D7DFA87FAFAEF155959B2EB4775
:1020D000478EC9F0F0FB0BADAD41ECD4D4B367A291
:1020E000A25FFDAFAF45EA9C9C23BFA4A453F77247
:1020F00072E496C0C09B5BB7B775C2FDFDE11C934F
:10210000933DAE26264C6A36366C5A3F3F7E41F7E9
:10211000F7F502CCCC834F3434685CA5A551F4E5C7
:10212000E5D134F1F1F9087171E293D8D8AB73318C
:1021300031625315152A3F0404080CC7C795522372
:10214000234665C3C39D5E18183028969637A105AF
:10215000050A0F9A9A2FB507070E09121224368026
:10216000801B9BE2E2DF3DEBEBCD2627274E69B2D9
:10217000B27FCD7575EA9F0909121B83831D9E2CC2
:102180002C58741A1A342E1B1B362D6E6EDCB25A64
:102190005AB4EEA0A05BFB5252A4F63B3B764DD660
:1021A000D6B761B3B37DCE2929527BE3E3DD3E2F61
:1021B0002F5E71848413975353A6F5D1D1B968006B
:1021C000000000EDEDC12C20204060FCFCE31FB1BD
:1021D000B179C85B5BB6ED6A6AD4BECBCB8D46BE27
:1021E000BE67D93939724B4A4A94DE4C4C98D45860
:1021F00058B0E8CFCF854AD0D0BB6BEFEFC52AAA45
:10220000AA4FE5FBFBED16434386C54D4D9AD733E8
:102210003366558585119445458ACFF9F9E9100251
:102220000204067F7FFE815050A0F03C3C78449F22
:102230009F25BAA8A84BE35151A2F3A3A35DFE408A
:102240004080C08F8F058A92923FAD9D9D21BC3802
:10225000387048F5F5F104BCBC63DFB6B677C1DA77
:10226000DAAF752121426310102030FFFFE51AF329
:10227000F3FD0ED2D2BF6DCDCD814C0C0C181413D2
:10228000132635ECECC32F5F5FBEE1979735A24470
:102290004488CC17172E39C4C49357A7A755F27E8C
:1022A0007EFC823D3D7A476464C8AC5D5DBAE71947
:1022B00019322B7373E6956060C0A0818119984F25
:1022C0004F9ED1DCDCA37F222244662A2A547E90D2
:1022D000903BAB88880B8346468CCAEEEEC729B884
:1022E000B86BD31414283CDEDEA7795E5EBCE20B2B
:1022F0000B161DDBDBAD76E0E0DB3B323264563A99
:102300003A744E0A0A141E494992DB06060C0A2446
:1023100024486C5C5CB8E4C2C29F5DD3D3BD6EAC94
:10232000AC43EF6262C4A6919139A8959531A4E4BB
:10233000E4D3377979F28BE7E7D532C8C88B4337D6
:10234000376E596D6DDAB78D8D018CD5D5B1644E70
:102350004E9CD2A9A949E06C6CD8B45656ACFAF49C
:10236000F4F307EAEACF256565CAAF7A7AF48EAE50
:10237000AE47E908081018BABA6FD57878F0882502
:10238000254A6F2E2E5C721C1C3824A6A657F1B469
:10239000B473C7C6C69751E8E8CB23DDDDA17C74D2
:1023A00074E89C1F1F3E214B4B96DDBDBD61DC8B4D
:1023B0008B0D868A8A0F857070E0903E3E7C42B518
:1023C000B571C46666CCAA484890D803030605F6E2
:1023D000F6F7010E0E1C126161C2A335356A5F5714
:1023E00057AEF9B9B969D086861791C1C199581D00
:1023F0001D3A279E9E27B9E1E1D938F8F8EB1398EA
:10240000982BB3111122336969D2BBD9D9A9708E27
:102410008E0789949433A79B9B2DB61E1E3C228762
:10242000871592E9E9C920CECE87495555AAFF28DC
:10243000285078DFDFA57A8C8C038FA1A159F88909
:102440008909800D0D1A17BFBF65DAE6E6D731425C
:102450004284C66868D0B8414182C3999929B02D99
:102460002D5A770F0F1E11B0B07BCB5454A8FCBB74
:10247000BB6DD616162C3AA56363C6847C7CF8998E
:102480007777EE8D7B7BF60DF2F2FFBD6B6BD6B1ED
:102490006F6FDE54C5C5915030306003010102A951
:1024A0006767CE7D2B2B5619FEFEE762D7D7B5E6C0
:1024B000ABAB4D9A7676EC45CACA8F9D82821F409F
:1024C000C9C989877D7DFA15FAFAEFEB5959B2C966
:1024D00047478E0BF0F0FBECADAD4167D4D4B3FDB4
:1024E000A2A25FEAAFAF45BF9C9C23F7A4A453967A
:1024F0007272E45BC0C09BC2B7B7751CFDFDE1AE54
:1025000093933D6A26264C5A36366C413F3F7E02F5
:10251000F7F7F54FCCCC835C343468F4A5A551347F
:10252000E5E5D108F1F1F9937171E273D8D8AB53B5
:102530003131623F15152A0C04040852C7C795654E
:102540002323465EC3C39D28181830A19696370FE3
:1025500005050AB59A9A2F0907070E361212249B11
:1025600080801B3DE2E2DF26EBEBCD6927274ECDD5
:10257000B2B27F9F7575EA1B0909129E83831D7491
:102580002C2C582E1A1A342D1B1B36B26E6EDCEE14
:102590005A5AB4FBA0A05BF65252A44D3B3B766165
:1025A000D6D6B7CEB3B37D7B2929523EE3E3DD71A6
:1025B0002F2F5E97848413F55353A668D1D1B900A9
:1025C0000000002CEDEDC1602020401FFCFCE3C8A2
:1025D000B1B179ED5B5BB6BE6A6AD446CBCB8DD91F
:1025E000BEBE674B393972DE4A4A94D44C4C98E8E7
:1025F0005858B04ACFCF856BD0D0BB2AEFEFC5E596
:10260000AAAA4F16FBFBEDC5434386D74D4D9A55FD
:1026100033336694858511CF45458A10F9F9E9066B
:10262000020204817F7FFEF05050A0443C3C78BA07
:102630009F9F25E3A8A84BF35151A2FEA3A35DC021
:102640004040808A8F8F05AD92923FBC9D9D21486E
:1026500038387004F5F5F1DFBCBC63C1B6B67775E8
:10266000DADAAF63212142301010201AFFFFE50EA5
:10267000F3F3FD6DD2D2BF4CCDCD81140C0C1835C7
:102680001313262FECECC3E15F5FBEA2979735CC06
:102690004444883917172E57C4C493F2A7A755820C
:1026A0007E7EFC473D3D7AAC6464C8E75D5DBA2B35
:1026B000191932957373E6A06060C098818119D1B1
:1026C0004F4F9E7FDCDCA3662222447E2A2A54AB35
:1026D00090903B8388880BCA46468C29EEEEC7D380
:1026E000B8B86B3C14142879DEDEA7E25E5EBC1D30
:1026F0000B0B1676DBDBAD3BE0E0DB563232644E93
:102700003A3A741E0A0A14DB4949920A06060C6C0E
:10271000242448E45C5CB85DC2C29F6ED3D3BDEF95
:10272000ACAC43A66262C4A8919139A495953137A7
:10273000E4E4D38B7979F232E7E7D543C8C88B5903
:1027400037376EB76D6DDA8C8D8D0164D5D5B1D20A
:102750004E4E9CE0A9A949B46C6CD8FA5656AC0709
:10276000F4F4F325EAEACFAF6565CA8E7A7AF4E924
:10277000AEAE4718080810D5BABA6F887878F06FEF
:1027800025254A722E2E5C241C1C38F1A6A657C79C
:10279000B4B47351C6C69723E8E8CB7CDDDDA19CB9
:1027A0007474E8211F1F3EDD4B4B96DCBDBD618676
:1027B0008B8B0D858A8A0F907070E0423E3E7CC400
:1027C000B5B571AA6666CCD84848900503030601E2
:1027D000F6F6F7120E0E1CA36161C25F35356AF979
:1027E0005757AED0B9B9699186861758C1C1992794
:1027F0001D1D3AB99E9E2738E1E1D913F8F8EBB3D5
:1028000098982B33111122BB6969D270D9D9A98943
:102810008E8E07A7949433B69B9B2D221E1E3C924E
:1028200087871520E9E9C949CECE87FF5555AA7893
:102830002828507ADFDFA58F8C8C03F8A1A159805E
:10284000898909170D0D1ADABFBF6531E6E6D7C6CB
:10285000424284B86868D0C3414182B099992977CF
:102860002D2D5A110F0F1ECBB0B07BFC5454A8D69F
:10287000BBBB6D3A16162CC7280800CF280800D716
:10288000280800DF280800E7280800EF280800F7DC
:10289000280800FF280800072908000F290800174A
:1028A0002908001F290800272908002F29080037B8
:1028B0002908003F290800472908004F2909005826
:1028C00029090061290A002B060102010101002BE0
:1028D000060102010102002B060102010103002B87
:1028E000060102010104002B060102010105002B73
:1028F000060102010106002B060102010107002B5F
:10290000060102010108002B060102010109012B49
:10291000060102010201002B060102010202012B45
:10292000060102010B01002B060102010B03002B23
:10293000060102010B06002B060102010B1E002BF3
:10294000060102010B1F002B060102010B20002BC8
:10295000060102011F0101012B06010201630101B1
:10296000012B060106030101060100206C6F636163
:102970006C2F72656D6F746520706F727420257591
:102980002F25750A004372656174656420612063B8
:102990006F6E6E656374696F6E20776974682074FA
:1029A00068652073657276657220000A00436C6961
:1029B000656E742049507636206164647265737365
:1029C00065733A2000257325730A002E2573206F46
:1029D0006E6C696E652077697468206669786564D5
:1029E00020257520627974652077656220636F6E9B
:1029F00074656E740A002573004950763620416470
:102A000064726573733A2025730A000A002C2063F0
:102A10006865636B207261746520257520487A00B3
:102A200025732025732C206368616E6E656C2025EC
:102A300075000A2A2A2A2A2A2A2A426F6F74696E86
:102A4000672025732A2A2A2A2A2A2A0A0046414967
:102A50004C3A2D343720746F74616C5F7265616419
:102A60003D25640A004641494C3A2D343620723DDA
:102A700025640A004641494C3A2D34352C20746FA8
:102A800074616C5F726561643D256420723D2564EC
:102A90000A00436F756E743A25642C20723D2564DC
:102AA0000A004641494C3A2D343120746F74616CF0
:102AB0005F726561643D25640A004641494C3A2DC8
:102AC000343020723D25640A004641494C3A2D338A
:102AD000392C20746F74616C5F726561643D25648C
:102AE00020723D25640A00436F756E743A25642C8C
:102AF00020723D25640A004641494C3A2D33352069
:102B0000746F74616C5F726561643D25640A004690
:102B100041494C3A2D333520723D25640A00436FFC
:102B2000756E743A25642C20723D25640A00627526
:102B3000665B25645D20213D2025640A0072203DEE
:102B40002025640A00723D25642E206275665B7242
:102B50005D3D25640A00723D25640A002530327807
:102B6000003A002578003A003A3A000011241FBECE
:102B7000CFEFD0E4DEBFCDBF17E0A0E0B1E0E6E3E9
:102B8000F6EB01E00BBF02C007900D92AC39B10724
:102B9000D9F714E3ACE9B7E001C01D92A03DB1073D
:102BA000E1F70E94816C0C9419DB0C940000EF9209
:102BB000FF920F931F93DF93CF93CDB7DEB7E297CA
:102BC0000FB6F894DEBF0FBECDBF7C01DC018D9146
:102BD0009C918234910591F18334910508F068C08D
:102BE000009721F0CC9709F063C00FC08CE997E003
:102BF00062EE74E00E94D01780E091E00E947C2A8F
:102C00008CE390E0F701918380838CE997E00E9448
:102C10006916892B11F480E04FC080E191E00E9499
:102C2000D96C8CE997E06DE770E00E94D01782E4E0
:102C300090E0D7018D939C9381E03EC08CE997E0B2
:102C40000E946916892B99F3EDB7FEB738970FB636
:102C5000F894FEBF0FBEEDBF31968E010F5F1F4F80
:102C6000ADB7BEB712961C930E93119782E191E017
:102C7000938382838091D8239091D923A091DA23E2
:102C8000B091DB2384839583A683B7830E9494D776
:102C9000EDB7FEB738960FB6F894FEBF0FBEEDBF86
:102CA000C8010E947C2A8CE997E00E94BA17BFCF26
:102CB000D7011D921C9283E0E2960FB6F894DEBF16
:102CC0000FBECDBFCF91DF911F910F91FF90EF907D
:102CD000089520E030E0FC0186819781892B11F472
:102CE00021E030E0C9010895FC0122813381808117
:102CF0009181280F391FC9010895FC0180819181BC
:102D000008952091A4073091A5072115310511F0F0
:102D100021E030E0C90108958091A4079091A507B2
:102D2000892B19F420E030E004C02091A6073091EF
:102D3000A707C90108958091A4079091A507892B41
:102D400029F41092A7071092A60708950E94DB7E2F
:102D5000BC01E091A407F091A507428153818081D5
:102D60009181480F591F461B570B0CC0228133819C
:102D700080819181280F391F261B370B24173507B7
:102D800008F4A9010480F581E02D309779F7460F0A
:102D9000571F5093A7074093A6070895CF93DF933B
:102DA000EC01E091A407F091A5078E179F0741F46D
:102DB0008C819D819093A5078093A40714C0FC018A
:102DC000309731F0848195818C179D07C1F707C03A
:102DD0001D821C821F821E82DF91CF9108958C81FB
:102DE0009D81958384830E949B16F2CFFC01808194
:102DF0009181860F971F918380830E949B1608956F
:102E00008BE491E00E945A8B0895EF92FF920F930A
:102E10001F93CF93DF937C01FC0180819181009708
:102E200029F08A35910509F06DC00BC01092A507F5
:102E30001092A4078AE590E0F7019183808381E0F6
:102E400065C0673849F59A01E091A407F091A5079C
:102E500003C00480F581E02D309741F3868197818E
:102E600082179307B1F3E093A407F093A5070FC06F
:102E700016968D919C9117978217930711F0FD017B
:102E800006C014968D919C91159795838483A48197
:102E9000B581109769F7CECF623861F6C091A4076B
:102EA000D091A50700E010E02AC0CE010E944D8C11
:102EB000892B01F18E819F8168E8AE010E94FA8A18
:102EC000892BA1F41F821E828C819D810115110521
:102ED00021F0F8019583848304C09093A507809323
:102EE000A4071D821C820E949B16D8CF8BE491E020
:102EF0000E945A8B8E018C819D819C01E901209753
:102F0000A1F698CFF7011182108283E0DF91CF9173
:102F10001F910F91FF90EF900895CF93DF93EC01F5
:102F20008BE491E00E945A8B8E819F81892B69F0FE
:102F3000E091A407F091A50706C0EC17FD07A9F0E2
:102F40000480F581E02D3097C1F78091A70B909117
:102F5000A80B9F838E838091A4079091A5079D83E2
:102F60008C83D093A507C093A4070E949B16DF9182
:102F7000CF9108950F931F938C010E94658CC80117
:102F80000E948D171F910F9108950F931F938C012D
:102F90000E942E8CC8010E948D171F910F910895D9
:102FA0000F931F938C010E94708CC8010E948D1793
:102FB0001F910F910895CF93DF93EC012881398100
:102FC0002115310521F02B33310591F407C00E9402
:102FD00097188BE390E09983888304C08091C72B76
:102FE000681711F081E007C0CA010E94411DF1CFAE
:102FF0001982188283E0DF91CF91089565E571E031
:103000000E949A6A08954F925F926F927F928F9278
:103010009F92AF92BF92CF92DF92EF92FF920F9367
:103020001F93DF93CF93CDB7DEB7E0970FB6F89439
:10303000DEBF0FBECDBFFC012B01A080B180C280DE
:10304000D380E480F5800681178120853185428513
:10305000538564857585868597853E010894611C36
:10306000711C43010E94F11EE82FF0E0D301AE0F66
:10307000BF1F8AE38C93DE01AE0FBF1F80E2129662
:103080008C931297FD011382C301B2010E949A6AC8
:10309000E0960FB6F894DEBF0FBECDBFCF91DF91A3
:1030A0001F910F91FF90EF90DF90CF90BF90AF9066
:1030B0009F908F907F906F905F904F900895AB019D
:1030C00060E031E0DA011196FA012491FC01E60F8B
:1030D000F11D20832A3321F43323C9F031E012C0DB
:1030E000293021F4332399F031E00DC0203219F456
:1030F000332349F40CC02A3051F02D3041F0222303
:1031000031F030E06F5F653110F4AD01DBCFDC01F1
:10311000A60FB11D8C9104C04F5F5F4FFA018491DF
:103120008032D1F38930C1F31C92CA01089580E046
:1031300090E50E947CA08DE691E00E940B8C0E949D
:103140002C1E0895CF93DF93EC018E899F89009701
:1031500021F08238910559F504C082E890E09F8BF8
:103160008E8BCE0146966FE37AE1AE010E9466A295
:10317000823014F480E01EC0FE01E858FF4FC658AC
:10318000DF4F2081318148815981CA57D040241BAB
:10319000350B31832083FE01EA58FF4F80819181F6
:1031A000840F951F9183808312161306B4F21F8A31
:1031B0001E8A83E0DF91CF910895EF92FF920F93E3
:1031C0001F93CF93DF938C017B01FC018689978944
:1031D000F1E082359F0709F47FC021E08335920733
:1031E000A8F4E1E088349E0799F1F1E089349F0763
:1031F00018F4892B41F1D2C021E08C34920709F4F4
:103200006BC08E54914009F0C9C047C0F1E08835C9
:103210009F0709F49AC021E08935920750F4E1E054
:1032200084359E0709F46BC08655914009F0B6C0FD
:1032300079C021E08A35920709F49AC08C559140F3
:1032400009F0ACC0A1C088E491E0F801978B868BAF
:10325000C80146966DE07AE1A7010E9466A282301D
:103260000CF4A1C0C8018F599F4F6EE270E00E941C
:10327000B2D6EC018BE691E0B70141E050E00E944C
:103280004BD6892B19F48CE491E023C0209761F48C
:103290008EE491E0F801978B868BC80146966BED22
:1032A00079E141E451E076C02196CE0169E071E018
:1032B00043E050E00E944BD6892B49F0CE016FE5E8
:1032C00071E044E050E00E944BD6892B61F482E526
:1032D00091E0F801978B868BC80146966BED79E1FA
:1032E00044E051E057C0CE0163E171E00E9432D664
:1032F000892B61F484E591E0F801978B868BC801F6
:1033000046966BED79E14EE051E044C0CE016DE1AF
:1033100071E00E9432D6892B61F486E591E0F801D4
:10332000978B868BC80146966BED79E147E151E0BA
:1033300031C0CE0167E271E00E9432D6892B61F480
:1033400088E591E0F801978B868BC80146966BED76
:1033500079E141E251E01EC0CE016BE271E00E94D2
:1033600032D6892B61F48AE591E0F801978B868B40
:10337000C80146966BED79E14BE251E00BC08CE55C
:1033800091E0F801978B868BC80146966BED79E149
:1033900046E351E00E9466A282302CF0F801178AC1
:1033A000168A83E001C080E0DF91CF911F910F91D9
:1033B000FF90EF900895EF92FF920F931F937C017F
:1033C0000E9442D6082F8091952A9091962A6DED01
:1033D00070E04EE050E00E941ED68091952A9091B8
:1033E000962A0E96B701402F50E00E941ED6025F2B
:1033F00010E08091952A9091962A800F911F6CEE93
:1034000070E044E050E00E941ED60C5F1F4FC801E0
:103410001F910F91FF90EF900895EF92FF920F93FD
:103420001F937C010E9442D6082F8091952A90918B
:10343000962A6CE870E049E050E00E941ED6809128
:10344000952A9091962A0996B701402F50E00E9444
:103450001ED6075F10E08091952A9091962A800FE2
:10346000911F66E970E046E450E00E941ED60A5BB8
:103470001F4FC8011F910F91FF90EF9008950F9378
:103480001F93DC01A858BF4F2D913C911197A8576D
:10349000B040E091972AF091982A868D978DFD0192
:1034A000E658FF4F8217930718F49183808302C078
:1034B00031832083AA58BF4F6D917C9111978D0164
:1034C0000C5F1F4FF801408151818091952A9091A6
:1034D000962A0E941ED6F801808191811F910F913A
:1034E0000895EF92FF920F931F93CF93DF93EC0118
:1034F00089819A8121E08A389207A1F0A1E08B3876
:103500009A0718F4892B51F0A2C0B1E08F389B07BD
:10351000F9F08D5A914009F09AC078C08AE891E09C
:103520009A838983CE01019660E20E94D5A0823001
:103530000CF48FC0CE018F9660E971E044E050E05A
:103540000E944BD6892B89F48FE891E09A83898376
:103550008E010F5F1F4FC80160E20E94D5A082302C
:103560000CF477C08FA58F3221F080E18093902AF0
:103570006EC088A931E6E32EF12CEC0EFD1E8032E0
:1035800031F4C70165E671E00E943BD62DC0C80149
:103590000E94B7A0FE01E80FF91F16A68E01015D7B
:1035A0001F4FC701B80144E150E00E94A3D6780143
:1035B00000E010E0D7018C918F3351F4C8018F9651
:1035C0008C0F9D1F0E947C2A043110F4F70112AA6F
:1035D000D7018C91882341F00F5F1F4F0894E11CA5
:1035E000F11C0233110531F7CF59DF4F8091972A33
:1035F0009091982ABE010E940318649681E0888306
:10360000C557D0408DEA91E09A8389837E01089462
:10361000E11CF11CC7016AE00E94D5A08230CCF009
:103620008E01015D1F4FC80165E971E048E050E07F
:103630000E944BD6892B31F7C7010E94B7A0FE012B
:10364000E80FF91F15A6C8010E94FE17DBCF1A82EA
:103650001982CB58DF4F8881C557D040813009F09F
:1036600009C28BA59CA5B1E083379B0709F4F8C17B
:10367000E1E084379E0738F40097A1F0825791402B
:1036800009F0F6C12AC021E08937920709F45CC02D
:10369000A1E08B379A0709F4E3C18557914009F0FF
:1036A000E7C12AC08E010F591F4F26E7E22EF12CE9
:1036B000EC0EFD1EC801B7010E94A91D892BC1F4A3
:1036C000C80161E771E00E943BD6C801B7010E94C2
:1036D000A91D82E791E09CA78BA7CE016BE771E063
:1036E0000E94DD1882300CF4C5C183E791E0B6C1B9
:1036F00085E791E09CA78BA7CE0169E871E00E9465
:10370000DD1882300CF4B6C18E010F591F4FC8016D
:103710006EE270E00E9488D6009741F06EE571E09D
:1037200046E050E00E944BD6892B41F0C80165E687
:1037300071E00E9432D6892B09F08EC11EA61DA60B
:1037400089E791E09CA78BA78DA59EA58B3E91054F
:1037500009F459C08C3E910518F4892B51F079C1B8
:103760008E3E910509F457C08B50914009F071C10C
:10377000E5C0C858DF4F88819981C857D0409093E1
:10378000A9078093A80759C18091A8079091A9071C
:103790008217930708F45DC18E010A581F4FD801A4
:1037A000ED91FC918491853209F07DC03196849130
:1037B0003197813209F077C032968CEA97E0BF01E9
:1037C0000E945F18C458DF4F89939993F8012081B4
:1037D0003181D7014D915C91240F351F281B390B86
:1037E00039832883CE57D0408091AC078A3379F44F
:1037F0008DEA97E0B8010E94A91D892BE1F08BEEBC
:1038000090E09EA78DA7CE010E94A21811C08EEE57
:1038100090E09EA78DA78CEA97E00E94D829FC0132
:10382000C458DF4F68817981CC57D040CE010995CB
:1038300082300CF41FC19CE7E92EF12CEC0EFD1E2A
:10384000F70100811181C8016AE070E00E9427D66B
:103850009C01FE01E258FF4F009771F02F5F3F4F30
:10386000021B130B80819181080F191F11830083A4
:10387000D7012D933C9302C011821082FE01EA58B9
:10388000FF4FC458DF4F88819981CC57D040918336
:103890008083FE01E858FF4FC258DF4F888199812D
:1038A000CE57D040C8C00091972A1091982AF801AD
:1038B000868D978DFE01E658FF4F8217930718F407
:1038C0009183808302C031832083CA58DF4FE8810F
:1038D000F981C657D0408491853219F4CF01019601
:1038E00001C0CF0165E270E00E9427D69093AB073C
:1038F0008093AA078091AA079091AB070097D1F017
:10390000CA58DF4F28813981C657D04082179307A4
:1039100089F0821B930BFE01E658FF4F9183808351
:10392000D8015E962D913C915F978217930710F016
:10393000318320838BE091E09EA78DA78E899F899C
:10394000009729F08B39910509F05DC020C0FE0178
:10395000E858FF4F808191819093C6078093C507F7
:10396000C658DF4F288139813093C4072093C3079D
:10397000249788819981C657D0409093C20780933D
:10398000C107318320838BE990E09F8B8E8BCE0122
:1039900046966FE37AE1AE010E9466A282300CF493
:1039A00069C0DE01A858BF4FBE0166587F4F8D9198
:1039B0009C911197FB0140815181841B950B1196BD
:1039C0009C938E938E010A581F4FF80120813181FC
:1039D000240F351F3183208318161906A4F2809115
:1039E000C3079091C407FB01918380838091C50731
:1039F0009091C6078D939C938091C1079091C207C7
:103A0000D8018D939C931F8A1E8AFE01EA58FF4FAE
:103A1000C658DF4F8081918128813981CA57D040B3
:103A2000820F931F91838083FE01E858FF4F8081AE
:103A30009181821B930B9183808388E7E82EF12C80
:103A4000EC0EFD1EF70120813181121613060CF4D5
:103A50009BCE1EA61DA609C08BE791E09CA78BA755
:103A6000CE010E94A21882302CF080E18093902A2F
:103A70001CA61BA6DF91CF911F910F91FF90EF9095
:103A800008950F931F93CF93DF93EC014091902AF9
:103A9000242F30E0C90180739070892B11F447FF07
:103AA00009C0209709F449C08DE691E0BE010E944B
:103AB000BA8B43C046FF27C08DE691E00E948C8BF5
:103AC000EC010097B9F18091972A9091982ABE0154
:103AD0000E94259D8E01015D1F4FCE010196B80108
:103AE00041E350E00E94A3A1CE014696B80141E314
:103AF00050E00E94A3A11CA61BA6CB58DF4F188242
:103B0000C557D04012C02097A9F043FF0EC088814E
:103B10008F5F8883843150F080E28093902A8DE615
:103B200091E0BE010E94BA8B01C01882CE010E94B2
:103B3000711A03C080E28093902ADF91CF911F9188
:103B40000F9108958BE195E1089585E293E1089541
:103B50000895AF92BF92CF92DF92EF92FF920F93B0
:103B60001F93DF93CF93CDB7DEB728970FB6F894A6
:103B7000DEBF0FBECDBF6C017B016BE175E100E0E4
:103B800010E05E010894A11CB11C31C0C50148E0E1
:103B900050E00E941ED66B817C81C6010E9432D605
:103BA000892B09F5E114F104B1F08D819E81D701D3
:103BB00011969C938E938F81988513969C938E93E8
:103BC0001297F801EE0FFF1FE052FC4D80819181AA
:103BD000019691838083000F111F00521C4DD80164
:103BE000ED91FC9109C00F5F1F4F69817A816115CA
:103BF000710561F6E0E0F0E0CF0128960FB6F89489
:103C0000DEBF0FBECDBFCF91DF911F910F91FF900F
:103C1000EF90DF90CF90BF90AF900895FC01178A8E
:103C2000168A83E00895DC0111961C921E92E091A1
:103C3000D309F091D409309729F49093D409809353
:103C4000D3090895CF010190F081E02D3097D1F78D
:103C5000FC01B183A083089510927901109278013C
:103C6000E091D309F091D409309739F488E791E0D5
:103C70009093D4098093D3090BC0CF010190F081B8
:103C8000E02D3097D1F7FC0188E791E091838083A4
:103C900010927F0110927E01E091D309F091D40936
:103CA000309739F48EE791E09093D4098093D3094B
:103CB0000BC0CF010190F081E02D3097D1F7FC01CE
:103CC0008EE791E0918380831092850110928401A8
:103CD000E091D309F091D409309739F484E891E068
:103CE0009093D4098093D3090BC0CF010190F08148
:103CF000E02D3097D1F7FC0184E891E09183808337
:103D000010928B0110928A01E091D309F091D409AD
:103D1000309739F48AE891E09093D4098093D309DD
:103D20000BC0CF010190F081E02D3097D1F7FC015D
:103D30008AE891E091838083109291011092900122
:103D4000E091D309F091D409309739F480E991E0FA
:103D50009093D4098093D3090BC0CF010190F081D7
:103D6000E02D3097D1F7FC0180E991E091838083C9
:103D70001092970110929601E091D309F091D40925
:103D8000309739F486E991E09093D4098093D30970
:103D90000BC0CF010190F081E02D3097D1F7FC01ED
:103DA00086E991E09183808310929D0110929C019D
:103DB000E091D309F091D409309739F48CE991E07E
:103DC0009093D4098093D3090895CF010190F08195
:103DD000E02D3097D1F7FC018CE991E0918380834D
:103DE00008956F927F928F929F92AF92BF92CF92DF
:103DF000DF92EF92FF920F931F93DF93CF93CDB794
:103E0000DEB760970FB6F894DEBF0FBECDBFA982B4
:103E1000BA82CB82DC82ED82FE820F8318872987EB
:103E20003A874B875C876D877E878F87988B840165
:103E3000FF24EE24DD245E010894A11CB11C35E7AB
:103E4000632E31E0732E2AE3C22E2D2D30E0F901CE
:103E5000EE0FFF1FEA0DFB1D808191810097D1F4C9
:103E6000FF20C1F401C0F394F901EF0DF11DEE0F35
:103E7000FF1FEA0DFB1D80819181892BA1F381E059
:103E8000F81629F480E3D8018D938D012DC0DF0C45
:103E9000EF0C20C00E941D9300D000D000D0EDB7E1
:103EA000FEB73196ADB7BEB712961C930E9311971D
:103EB00073826282958384830E9494D7080F191FAE
:103EC000D394E394EDB7FEB736960FB6F894FEBFE1
:103ED0000FBEEDBFF8E0EF1639F0D801CD928D019D
:103EE000B7E0BE1508F0B1CF802F881960960FB6E5
:103EF000F894DEBF0FBECDBFCF91DF911F910F9120
:103F0000FF90EF90DF90CF90BF90AF909F908F90F9
:103F10007F906F900895CF93DF93EC018E899F89F6
:103F200021E0873E920751F021E0893E920799F007
:103F3000892BD1F487EE91E09F8B8E8BCE01469634
:103F400063ED71E2AE010E9466A282308CF089EED0
:103F500091E09F8B8E8BCE01469665ED70E2AE01AF
:103F60000E9466A2823024F01F8A1E8A83E001C06C
:103F700080E0DF91CF910895CF93DF93EC018E899C
:103F80009F89009721F083589140A9F404C083E8E9
:103F900091E09F8B8E8BC058DF4F48815981C0586C
:103FA000D040CE0146966EE673E20E9466A2823051
:103FB00014F480E003C01F8A1E8A83E0DF91CF9152
:103FC0000895CF93DF93EC018E899F89009721F0AC
:103FD0008E559140A9F404C08EE591E09F8B8E8BA5
:103FE000C058DF4F48815981C058D040CE01469615
:103FF00069E475E20E9466A2823014F480E003C096
:104000001F8A1E8A83E0DF91CF910895CF93DF93BB
:10401000EC018E899F89009721F082549140A9F488
:1040200004C082E491E09F8B8E8BC058DF4F4881A3
:104030005981C058D040CE01469669E376E20E948D
:1040400066A2823014F480E003C01F8A1E8A83E0D7
:10405000DF91CF9108950F931F93CF93DF93EC01DE
:104060008E899F89009721F08E51914081F50FC074
:10407000C058DF4F8091A50B9091A60B9983888340
:10408000C058D0401CC08EE191E09F8B8E8B8E017A
:1040900000581F4FD8014D915C91CE01469668E2C1
:1040A00077E20E9466A2823014F480E013C0D80147
:1040B000ED91FC911197808191818D939C93C058D3
:1040C000DF4F88819981C058D040892BE1F61F8A43
:1040D0001E8A83E0DF91CF911F910F910895CF93B6
:1040E000DF93EC018E899F89009721F083509140E6
:1040F00071F512C0C058DF4F19821882C058D040E5
:104100001EC08091BE2A90E08F709070892B79F04C
:1041100083E091E09F8B8E8BCE01469662EB77E237
:10412000AE010E9466A2823014F480E013C0FE014A
:10413000E058FF4F80819181019691838083C05820
:10414000DF4F88819981C058D040892BD1F21F8AD6
:104150001E8A83E0DF91CF910895CF93DF93EC0126
:10416000AB018E899F89009721F08A3D9105B9F4B2
:104170000CC0CF59DF4FD093E209C093E109C1567B
:10418000D0408AED90E09F8B8E8BCE01469661EDFC
:1041900078E20E9466A2823014F480E003C01F8A95
:1041A0001E8A83E0DF91CF9108957F928F929F9234
:1041B000AF92BF92CF92DF92EF92FF920F931F9335
:1041C000E090DD09F090DE090091DF091091E0092F
:1041D000C801B70120E137E240E050E00E945FDA19
:1041E0002091432430914424409145245091462409
:1041F0000E94A5DA722E932F822F64E670E00E944F
:104200007EDAC62EDD24C801B70120E13EE040E0A1
:1042100050E00E94A5DA49015A0180E19EE0AC011C
:10422000249FC001259F900D349F900D1124E81A02
:10423000F90AC7016CE370E00E947EDA8DB79EB781
:1042400040970FB6F8949EBF0FBE8DBFADB7BEB7F7
:1042500011968091952A9091962AEDB7FEB7928398
:104260008183E091972AF091982A868D978D1396F5
:104270009C938E93129780E695E115969C938E936E
:10428000149717969C928E92169719967C936E931C
:1042900018978CE390E0AC01649FC001659F900D7E
:1042A000749F900D1124E81AF90A1B96FC92EE9265
:1042B0001A971D96DC92CE921C978CE99FEFFC0119
:1042C000CE9EC001CF9E900DDE9E900D1124870DD5
:1042D0001E968C931E971F961C920E9463D78C018A
:1042E000ADB7BEB711968091952A9091962A800F0E
:1042F000911FEDB7FEB792838183E091972AF091E9
:10430000982A868D978D801B910B13969C938E9384
:10431000129783E295E115969C938E931497809162
:10432000D8249091D92417969C938E9316978091B8
:104330004E2490914F2419969C938E9318978091B8
:10434000DB249091DC241B969C938E931A9780918A
:104350004B2490914C241D969C938E931C97809196
:10436000482490E08C5590401F969C938E931E9706
:104370000E9463D79C01200F311F4DB75EB7405F8D
:104380005F4F0FB6F8945EBF0FBE4DBFC9011F91BE
:104390000F91FF90EF90DF90CF90BF90AF909F90E4
:1043A0008F907F9008954F925F926F927F928F923D
:1043B0009F92AF92BF92CF92DF92EF92FF920F93B4
:1043C0001F93CF93DF934091D5095091D609609107
:1043D000D7097091D809411551056105710519F486
:1043E000C0E0D0E03CC02DB73EB72A5030400FB6F9
:1043F000F8943EBF0FBE2DBF2F5F3F4F8091952A8F
:104400009091962AEDB7FEB792838183E091972A27
:10441000F091982A868D978DF901938382838CE29F
:1044200096E1958384838091432490914424A091C4
:104430004524B0914624841B950BA60BB70B8683AD
:104440009783A087B1870E9463D7EC012DB73EB751
:10445000265F3F4F0FB6F8943EBF0FBE2DBF8DB7FE
:104460009EB70A970FB6F8949EBF0FBE8DBFADB72B
:10447000BEB711968091952A9091962A8C0F9D1F18
:10448000EDB7FEB792838183E091972AF091982A45
:10449000868D978D8C1B9D0B13969C938E931297F4
:1044A00088EF95E115969C938E93149782EA91E09C
:1044B00017969C938E9316978EEA91E019969C938B
:1044C0008E9318970E9463D74C018C0E9D1E80918D
:1044D0003B2490913C24A0913D24B0913E248093B4
:1044E000DD099093DE09A093DF09B093E009E09025
:1044F0004324F09044240091452410914624C8019F
:10450000B70120E13EE040E050E00E94A5DA590109
:104510006A0100E11EE0209FC001219F900D309FA5
:10452000900D1124E81AF90A4CE3442E512CC701CE
:104530006CE370E00E947EDA00D0ADB7BEB7119692
:104540008091952A9091962A880D991DEDB7FEB716
:1045500092838183E091972AF091982A868D978D96
:104560008819990913969C938E9312978CEC95E178
:1045700015969C938E9314971796BC92AE921697AD
:1045800019967C936E931897649DC001659D900D5C
:10459000749D900D1124E81AF90A1B96FC92EE9274
:1045A0001A970E9463D7E401C80FD91F60903F2477
:1045B0007090402480904124909042242DB73EB7C3
:1045C000245F3F4F0FB6F8943EBF0FBE2DBF61145E
:1045D00071048104910409F46FC0C401B30120E1A6
:1045E0003EE040E050E00E94A5DA59016A01209FB8
:1045F000C001219F900D309F900D11247301E81A86
:10460000F90AC7016CE370E00E947EDA8DB79EB7AD
:104610000E970FB6F8949EBF0FBE8DBF0DB71EB795
:104620000F5F1F4F8091952A9091962A8C0F9D1FA6
:10463000EDB7FEB792838183E091972AF091982A93
:10464000868D978D8C1B9D0BF8019383828389E95E
:1046500095E195838483B782A68271876087649D84
:10466000C001659D900D749D900D1124E81AF90A02
:10467000F386E286C401B30124E630E040E050E076
:104680000E945FDA209143243091442440914524D4
:10469000509146240E94A5DAF801248715860E94CD
:1046A00063D7C80FD91F2DB73EB7225F3F4F0FB654
:1046B000F8943EBF0FBE2DBFCE01DF91CF911F9169
:1046C0000F91FF90EF90DF90CF90BF90AF909F90B1
:1046D0008F907F906F905F904F9008952F923F92B0
:1046E0004F925F926F927F928F929F92AF92BF9202
:1046F000CF92DF92EF92FF920F931F93DF93CF93AE
:1047000000D00F92CDB7DEB700D000D000D0ADB74B
:10471000BEB711968091952A9091962AEDB7FEB773
:1047200092838183E091972AF091982A868D978DC4
:1047300013969C938E9312978DE496E115969C9315
:104740008E9314970E9463D72C015EE2252E51E3CD
:10475000352E1B821A8219822DB73EB72A5F3F4F32
:104760000FB6F8943EBF0FBE2DBFF10180818823A4
:1047700009F4FBC0FB81FF5FFB8329813A816EE274
:1047800070E0269F3001279F700C369F700C11241B
:10479000F301E15DFE4C8090952A9090962A840C5E
:1047A000951CA080B180C280D380E480F580068112
:1047B0001781208531854285538564857585868579
:1047C00097850E94F11E480E511C8DB79EB7089721
:1047D0000FB6F8949EBF0FBE8DBFADB7BEB7119692
:1047E0008091952A9091962A840D951DEDB7FEB77C
:1047F00092838183E091972AF091982A868D978DF4
:104800008419950913969C938E9312972AE836E1A2
:1048100015963C932E931497F101818916968C93EB
:10482000169717961C920E9463D7480E591E2DB7F3
:104830003EB7285F3F4F0FB6F8943EBF0FBE2DBF67
:1048400061E471E3660E771E8090952A9090962A17
:10485000840C951CF301A080B180C280D380E480D9
:10486000F5800681178120853185428553856485D1
:104870007585868597850E94F11E8201080F111D9E
:10488000F10123A134A145A156A18091952A9091CF
:10489000962A2031FEE03F07F0E04F07F0E05F0787
:1048A000C0F56DB77EB76A5070400FB6F8947EBF02
:1048B0000FBE6DBFADB7BEB71196800F911FEDB79C
:1048C000FEB792838183E091972AF091982A868D92
:1048D000978D801B910B13969C938E9312976FE785
:1048E00076E115967C936E93149716962D933D93CF
:1048F0004D935C9319970E9463D72C01400E511E73
:104900008DB79EB70A960FB6F8949EBF0FBE8DBFA7
:104910002CC000D000D000D0ADB7BEB71196800F2C
:10492000911FEDB7FEB792838183E091972AF091B2
:10493000982A868D978D801B910B13969C938E934E
:10494000129729E736E115963C932E9314970E940F
:1049500063D72C01400E511E6DB77EB76A5F7F4F43
:104960000FB6F8947EBF0FBE6DBF89819A81019604
:104970009A838983EEE2F0E02E0E3F1E449709F001
:10498000F4CEFB81FF2379F500D000D000D0ADB785
:10499000BEB711968091952A9091962A840D951D07
:1049A000EDB7FEB792838183E091972AF091982A20
:1049B000868D978D8419950913969C938E931297E3
:1049C00084E596E115969C938E9314970E9463D785
:1049D000480E591E2DB73EB72A5F3F4F0FB6F894C9
:1049E0003EBF0FBE2DBF6DB77EB7685070400FB68B
:1049F000F8947EBF0FBE6DBFADB7BEB71196809164
:104A0000952A9091962A840D951DEDB7FEB7928355
:104A10008183E091972AF091982A868D978D841949
:104A2000950913969C938E9312978FE596E11596B0
:104A30009C938E93149784E190E0FB818F1B9109E6
:104A400017969C938E9316970E9463D79C01240D12
:104A5000351D6DB77EB7685F7F4F0FB6F8947EBF88
:104A60000FBE6DBFC9010F900F900F90CF91DF91D6
:104A70001F910F91FF90EF90DF90CF90BF90AF907C
:104A80009F908F907F906F905F904F903F902F906E
:104A900008953F924F925F926F927F928F929F9272
:104AA000AF92BF92CF92DF92EF92FF920F931F933C
:104AB000CF93DF9300D000D000D0ADB7BEB7119632
:104AC0008091952A9091962AEDB7FEB792838183C3
:104AD000E091972AF091982A868D978D13969C9352
:104AE0008E9312978DE496E115969C938E9314976E
:104AF0000E9463D73C0166E6462E6DE2562E3324B3
:104B0000C0E0D0E08DB79EB706960FB6F8949EBF72
:104B10000FBE8DBFF2018081882309F456C0339403
:104B200080E390E0C89FF001C99FF00DD89FF00D81
:104B30001124E959F24D8090952A9090962A860C7E
:104B4000971CA080B180C280D380E480F58006816C
:104B500017812085318542855385648575858685D5
:104B600097850E94F11E8301080F111D00D000D00F
:104B700000D0ADB7BEB711968091952A9091962A34
:104B8000800F911FEDB7FEB792838183E091972A42
:104B9000F091982A868D978D801B910B13969C938C
:104BA0008E93129784E996E115969C938E931497B1
:104BB0000E9463D73801680E791EEDB7FEB73696AE
:104BC0000FB6F894FEBF0FBEEDBF219680E390E0D4
:104BD000480E591EC431D10509F09CCFEDB7FEB780
:104BE00038970FB6F894FEBF0FBEEDBFADB7BEB796
:104BF00011968091952A9091962A860D971D928301
:104C00008183E091972AF091982A868D978D861955
:104C1000970913969C938E9312978FE596E11596BC
:104C20009C938E931497C319D1091796DC93CE9356
:104C300016970E9463D79C01260D371D8DB79EB72E
:104C400008960FB6F8949EBF0FBE8DBFC901DF91C5
:104C5000CF911F910F91FF90EF90DF90CF90BF9079
:104C6000AF909F908F907F906F905F904F903F900C
:104C700008953F924F925F926F927F928F929F9290
:104C8000AF92BF92CF92DF92EF92FF920F931F935A
:104C9000CF93DF9300D000D000D0ADB7BEB7119650
:104CA0008091952A9091962AEDB7FEB792838183E1
:104CB000E091972AF091982A868D978D13969C9370
:104CC0008E9312978DE496E115969C938E9314978C
:104CD0000E9463D73C01E5EE4E2EEBE25E2E3324BC
:104CE000C0E0D0E08DB79EB706960FB6F8949EBF91
:104CF0000FBE8DBFF2018081882309F455C0339423
:104D0000FE0175E0EE0FFF1F7A95E1F7EC0FFD1F36
:104D1000EA51F44D8090952A9090962A860C971C23
:104D2000A080B180C280D380E480F58006811781A5
:104D3000208531854285538564857585868597856F
:104D40000E94F11E8301080F111D00D000D000D079
:104D5000ADB7BEB711968091952A9091962A800F93
:104D6000911FEDB7FEB792838183E091972AF0916E
:104D7000982A868D978D801B910B13969C938E930A
:104D8000129784E996E115969C938E9314970E944E
:104D900063D73801680E791EEDB7FEB736960FB6A9
:104DA000F894FEBF0FBEEDBF219681E290E0480E61
:104DB000591EC430D10509F09DCFEDB7FEB7389725
:104DC0000FB6F894FEBF0FBEEDBFADB7BEB71196DC
:104DD0008091952A9091962A860D971D92838183C2
:104DE000E091972AF091982A868D978D86199709D8
:104DF00013969C938E9312978FE596E115969C934C
:104E00008E931497C319D1091796DC93CE931697F6
:104E10000E9463D79C01260D371D8DB79EB708965B
:104E20000FB6F8949EBF0FBE8DBFC901DF91CF9121
:104E30001F910F91FF90EF90DF90CF90BF90AF90B8
:104E40009F908F907F906F905F904F903F900895CC
:104E5000AF92BF92CF92DF92EF92FF920F931F9388
:104E6000DF93CF93CDB7DEB7EC970FB6F894DEBFE4
:104E70000FBECDBFB82EA92E082F192FB5E1CB2E0E
:104E8000D12CCC0EDD1ED80112966D917C9113971A
:104E9000C60148E250E00E94A3D6D8011896EC91D2
:104EA000F0E0EE0FFF1FE453FE4F608171817E0141
:104EB0000894E11CF11CC7010E943BD6EDB7FEB778
:104EC0003E970FB6F894FEBF0FBEEDBFADB7BEB7AD
:104ED00011968091952A9091962A92838183E091F0
:104EE000972AF091982A868D978D13969C938E938E
:104EF000129789E996E115969C938E9314971696CE
:104F0000BC9216971796AC9217971996DC92CE9290
:104F10001897F8018481992787FD90951B969C939B
:104F20008E931A971D96FC92EE921C970E9463D75F
:104F30002DB73EB7225F3F4F0FB6F8943EBF0FBE6E
:104F40002DBFEC960FB6F894DEBF0FBECDBFCF914C
:104F5000DF911F910F91FF90EF90DF90CF90BF9066
:104F6000AF9008954F925F926F927F928F929F922F
:104F7000AF92BF92CF92DF92EF92FF920F931F9367
:104F8000DF93CF93CDB7DEB764970FB6F894DEBF4B
:104F90000FBECDBFFC01E058FF4F208131818CE274
:104FA00090E0289F2001299F500C389F500C11241D
:104FB00029E93AE2420E531EE090952AF090962A93
:104FC000E091972AF091982A068D178DD20150967C
:104FD0008D919C9151970E941D93EDB7FEB7389724
:104FE0000FB6F894FEBF0FBEEDBF3196ADB7BEB79A
:104FF0001296FC92EE921197138302832FE137E110
:1050000035832483978386830E9463D73C01EDB761
:10501000FEB738960FB6F894FEBF0FBEEDBF809076
:10502000952A9090962A880E991ED201AC901196DE
:10503000BC9011971296CC9012971396DC90139710
:105040001496EC9014971596FC90159716960C9163
:10505000169717961C91179718962C9118971996D2
:105060003C9119971A964C911A971B965C911B9735
:105070001C966C911C971D967C911D971E968C9189
:105080001E971F969C910E94F11E6301C80ED11CB1
:10509000D2019596EC91F0E0EF70F070EE0FFF1FEB
:1050A000E654FE4F60817181CE0101960E943BD68D
:1050B000E090952AF090962AE091972AF091982A0C
:1050C000068D178DF201828993890E941D93BC0180
:1050D000D2019796AC9097979696BC9096975C96CF
:1050E0008D919C915D97892B19F440E250E002C0AC
:1050F0004AE250E0F20185A184FD03C020E230E0E5
:1051000002C021E230E08DB79EB742970FB6F89407
:105110009EBF0FBE8DBFEDB7FEB73196EC0CFD1CE8
:10512000ADB7BEB71296FC92EE9211970C191D09FD
:105130001383028380EE96E195838483778366836D
:10514000CE01019691878087A2861386B486158644
:1051500057874687318B208B0E9463D79C012C0D8B
:105160003D1DEDB7FEB772960FB6F894FEBF0FBEA9
:10517000EDBFC90164960FB6F894DEBF0FBECDBF78
:10518000CF91DF911F910F91FF90EF90DF90CF9023
:10519000BF90AF909F908F907F906F905F904F9057
:1051A00008956F927F928F929F92AF92BF92CF920B
:1051B000DF92EF92FF920F931F93DF93CF93CDB7C0
:1051C000DEB76C970FB6F894DEBF0FBECDBFBC0143
:1051D00029E0C22ED12CCC0EDD1EC60144E150E0E8
:1051E0000E941ED689858E3249F5E090952AF0906E
:1051F000962AE091972AF091982A068D178D809132
:10520000E1099091E20960E070E00E94A91D2DB7CC
:105210003EB7285030400FB6F8943EBF0FBE2DBFAA
:10522000EDB7FEB73196ADB7BEB71296FC92EE92CF
:1052300011971383028322E737E195C08A3209F080
:1052400070C00E94A21DBC0190EEA92E93E2B92E5F
:1052500000E010E03E010894611C711CC601DC2CCA
:10526000E92E86E4882E87E1982E56C0C30148E0D7
:1052700050E00E941ED66B817C818D2D9E2D44E1D5
:1052800050E00E941ED62DB73EB72C5030400FB6CE
:10529000F8943EBF0FBE2DBFADB7BEB7119680913B
:1052A000952A9091962A800F911FEDB7FEB79283B1
:1052B0008183E091972AF091982A868D978D801BA3
:1052C000910B13969C938E93129715969C928E92A7
:1052D00014971696DC9216971796EC9217971896D5
:1052E000DC9218971996EC921997F501819191919A
:1052F0005F011B969C938E931A970E9463D7080FA9
:10530000191F69817A812DB73EB7245F3F4F0FB6D1
:10531000F8943EBF0FBE2DBF6115710509F0A6CFF1
:1053200031C0E090952AF090962AE091972AF0916A
:10533000982A068D178DC60160E070E00E94A91DB5
:10534000ADB7BEB718970FB6F894BEBF0FBEADBFCE
:10535000EDB7FEB731961296FC92EE921197138339
:10536000028322E437E135832483978386830E9476
:1053700063D78C01EDB7FEB738960FB6F894FEBF31
:105380000FBEEDBFC8016C960FB6F894DEBF0FBE1E
:10539000CDBFCF91DF911F910F91FF90EF90DF90E4
:1053A000CF90BF90AF909F908F907F906F90089517
:1053B000EF92FF920F931F93CF93DF937C01C091E5
:1053C000D309D091D40912C00A811B81C8010E945F
:1053D00042D6AC01C701B8010E944BD6892B19F403
:1053E0002C813D8107C00990D881C02D209761F79D
:1053F0002EE03EE1C901DF91CF911F910F91FF9007
:10540000EF900895BC018EEA91E00E949CD68091B5
:10541000432490914424A0914524B0914624809344
:10542000D9099093DA09A093DB09B093DC090895B8
:10543000BC0182EA91E00E949CD680914324909125
:105440004424A0914524B09146248093D50990939B
:10545000D609A093D709B093D80908959C01F9996A
:10546000FECF32BD21BDF89A80B508951F920F92EC
:105470000FB60F9211240F900FBE0F901F9018952A
:10548000EF92FF920F931F93CF93DF93182FE62E87
:10549000F42E052F80E061E00E94908080E06E2D68
:1054A0000E94908080E0612F0E9490802F2D302FED
:1054B000C901EC0104C0699180E00E9490809E01C6
:1054C0002F192E15C0F380E064E00E949080DF91D8
:1054D000CF911F910F91FF90EF900895AC01DC01E7
:1054E0000D900020E9F76A2F681B653108F064E130
:1054F00085EC0E94402A0895AC01DC010D9000204B
:10550000E9F76A2F681B653108F064E182EC0E94BC
:10551000402A0895382F882329F0809108248F5F2E
:10552000809308242091F809213041F0213018F0AF
:10553000223051F406C0313039F523C03093F909D7
:1055400020C03093FA091DC02731A8F4E22FF0E003
:105550008091F90990E002968E179F077CF4343011
:1055600051F481E08093FB098EEE91E061E040E030
:1055700050E00E94FA8A1092F80906C0EF51F64FE7
:1055800030832F5F2093F80980E090E008950F9317
:105590001F93082F2FB783B7817F866083BF0023B7
:1055A00011F413E001C0102FF8948091B6008062CE
:1055B0008093B60082E08093B00087E08093B100D2
:1055C000812F90E035E0880F991F3A95E1F780939D
:1055D000B3002FBF1092B2000E9438818091B600B4
:1055E00084FDFCCF8091700082608093700083B74F
:1055F000816083BF1092082483B7816083BF889540
:1056000083B78E7F83BF812F0E947E7E002321F48B
:1056100080910824882371F383B78E7F83BF8091A4
:1056200070008D7F809370000E942A811F910F91DE
:105630000895CF93DF9380E68093902581E0809357
:10564000912510929325109292258AE380939625B6
:105650008091D72B809397250E944DBDA8EAB5E293
:10566000FC0180E101900D928150E1F788E995E21B
:1056700068EA75E20E94A3B98091181490E0FC01D9
:10568000E854FA4D20E820831182FC01E454FA4DDD
:10569000108211821282138280549A4DFC0180E1A3
:1056A000DF011D928A95E9F780E490E090938125CF
:1056B000809380251092942588E180939525809190
:1056C0001814C82FD0E0C854DA4D1B821A820E94E9
:1056D0006F92809590959B838A830E94EA9DDF91CB
:1056E000CF910895EF92FF920F931F93DF93CF9383
:1056F000CDB7DEB761970FB6F894DEBF0FBECDBF52
:105700007C01FA01DC018D919C91009729F08A5E61
:10571000914009F07CC01EC08E010F5F1F4FC80171
:1057200068E070E040E150E02EE23AE20E94D7D615
:10573000198AC8010E947C2A80E090E00E94399D6D
:10574000882309F064C08AEE91E0F7019183808399
:1057500081E061C08091C82B681791F44081403886
:1057600019F0413881F705C081EC60E040E050E07D
:1057700004C080EC61E043EE59E00E94402AE3CF90
:10578000613009F78091FB098823E9F28091FA09D9
:105790008238E1F0833828F4803879F08138A1F537
:1057A00005C08338C1F0843879F528C08091E409B8
:1057B0008093E3090E94192B27C084EE99E00E9490
:1057C000182A84EE99E00E94D1711EC084EE99E0FF
:1057D0000E94022A19C08091E409882349F5E091CA
:1057E0003E05F0913F0509958091E4090E94C72A82
:1057F000E0913C05F0913D05099506C083EC60E021
:1058000040E050E00E94402A1092FB099CCFD70153
:105810001D921C9283E061960FB6F894DEBF0FBE16
:10582000CDBFCF91DF911F910F91FF90EF90089521
:105830008091BE2A90E08F709070892B29F7CFCF8E
:10584000EF92FF920F931F93DF93CF93CDB7DEB705
:10585000C65ED1400FB6F894DEBF0FBECDBF20911B
:10586000D8233091D9234091DA235091DB232F5F45
:105870003F4F4F4F5F4F2093D8233093D92340930E
:10588000DA235093DB239091C72B891709F052C07C
:105890008091902A81FF4EC02091FC093091FD0932
:1058A000D901E8E9F5E280E101900D928150E1F73C
:1058B0008091B8259091B925D90153969C938E93E8
:1058C0005297609180257091812583E0E82EF12C1C
:1058D000EC0EFD1E8091952A9091962AA7019E01BB
:1058E0002F5F3F4F04EE11E00E941A2DA091FC099A
:1058F000B091FD09882349F053961C921E9252974D
:1059000080E11D928A95E9F715C049815A81CD0140
:10591000B7010E940DA3E091FC09F091FD0980E11F
:10592000DF011D928A95E9F7E091FC09F091FD09EC
:10593000138A128ACA51DE4F0FB6F894DEBF0FBE2B
:10594000CDBFCF91DF911F910F91FF90EF90089500
:10595000CF93DF93EC01288139812115310521F0A6
:105960002B3A310549F523C01092D8231092D92340
:105970001092DA231092DB2380E090E060E070E088
:1059800040E050E00E9430A0FC019093FD0980931C
:10599000FC0986E09AE4918B808B0E946A5F8F3FBE
:1059A00059F08BEA90E09983888381E008C0862FC4
:1059B000BA010E94202CF5CF1982188283E0DF9172
:1059C000CF9108956091FE097091FF098091000ABE
:1059D0009091010A08956091020A7091030A8091E2
:1059E000040A9091050A08956091060A7091070AC9
:1059F0008091080A9091090A089560910A0A7091AD
:105A00000B0A80910C0A90910D0A089580910A0A60
:105A100090910B0AA0910C0AB0910D0A0196A11D5C
:105A2000B11D80930A0A90930B0AA0930C0AB093BD
:105A30000D0A08954F925F926F927F928F929F927C
:105A4000AF92BF92CF92DF92EF92FF920F931F938C
:105A5000DF93CF9300D000D000D0CDB7DEB75C018C
:105A60007B014A01390128018091FE099091FF09CB
:105A7000A091000AB091010A0196A11DB11D809369
:105A8000FE099093FF09A093000AB093010A81E0F8
:105A9000653E780708F0CFC01A821982C5018E01D1
:105AA0000F5F1F4FA8010E94E039882351F4C50100
:105AB000B701A8019E012D5F3F4F0E947B3F8823C5
:105AC000A1F08091060A9091070AA091080AB0916E
:105AD000090A0196A11DB11D8093060A9093070A39
